:020000040800F2
:1000000000000120C5020008CB020008CF02000852
:1000100041030008450300088D03000800000000AC
:10002000000000000000000000000000D5030008F0
:10003000D903000800000000DD0300083D1E000891
:10004000F1030008F1030008F1030008F1030008C0
:10005000F1030008F10300080D160008251600083A
:100060003D160008551600086D160008F10300083B
:10007000F1030008F1030008F1030008F103000890
:10008000F1030008F1030008F1030008000000007C
:1000900000000000000000000000000085160008BD
:1000A000F1030008F1030008F1030008F103000860
:1000B000F1030008F1030008F1030008F103000850
:1000C000F1030008F1030008F1030008F51B000824
:1000D0004D1C0008811E00081D1F000800000000C4
:1000E0000D170008F1030008F103000800000000EC
:1000F000000000000000000000000000F103000804
:1001000000000000F1030008F1030008A51C00082E
:1001100000000000000000000000000000000000DF
:10012000611400087114000881140008911400087B
:10013000A114000800000000000000000000000002
:10014000000000000000000000000000F1030008B3
:10015000B1140008C1140008D1140008B91F000828
:10016000F1030008F1030008000000000000000097
:10017000000000000000000000000000000000007F
:1001800000000000F1030008000000000000000073
:10019000F103000800B583B000F040FE384B394A47
:1001A0001360394A1360394900E02146384B9942BF
:1001B0000BD20A684B6801F10C0488689842F4D9A4
:1001C0001168196004330432F8E72E4B1A68314B7A
:1001D0009A4200D0FEE72C4B1A682F4B9A42F9D175
:1001E000274B2E4A13602E4A13602E4B05E0002049
:1001F000106004329342FAD80B462B4A934204D241
:10020000194651F8082B5B68F4E7244B1B6813B9B7
:10021000234B1B6803B1FEE701F068FF694601A8A4
:1002200000F08EFD214C224BE41AA4100025AC42B4
:1002300014DC204C204BE41AA4100025AC4213DC43
:100240000099019802F01EF805461C4C1C4BE41A5C
:10025000A410002C0EDC284600F044FD144B53F88B
:10026000253098470135E2E7134B53F8253098477E
:100270000135E3E7013C124B53F824309847E8E797
:10028000BABADECA00000020F8000020F40300081B
:100290000C0400087856341232547698FC00002082
:1002A000F40200200C0400081C0400081C040008D0
:1002B0001C0400081C0400081C0400081C0400089E
:1002C0001C04000808B5FFF765FF00BEFEE71EF03E
:1002D000040F0CBFEFF30880EFF309807146414A29
:1002E00010472DE9F04182B004468846124B5E6B00
:1002F0009F6B9D6A1B6B13F0020F03D00E4BDB6AE2
:10030000002B0CDB0D4800F02DFDCDF800803B46A6
:1003100032462946204600F08DFD00BEFEE74BF632
:10032000AB6100F001FE0028ECD0034B4FF000421F
:10033000DA6202B0BDE8F08100ED00E0882E00082E
:1003400000BEFEE71EF0040F0CBFEFF30880EFF3D2
:1003500009807146244A10472DE9F04182B00446D5
:100360008846084B5E6B9F6B9D6A074800F0FAFC5D
:10037000CDF800803B4632462946204600F05AFD23
:1003800000BEFEE700ED00E0982E00081EF0040F0E
:100390000CBFEFF30880EFF309807146134A104752
:1003A0002DE9F04182B004468846084B5E6B9F6B96
:1003B0009D6A074800F0D6FCCDF800803B463246E7
:1003C0002946204600F036FD00BEFEE700ED00E0C5
:1003D000A42E000800BEFEE700BEFEE700BEFEE75A
:1003E00070470000E302000859030008A103000859
:0403F00000BEFEE766
:1003F4004C59030800000020FC0000204C5903085D
:100404000000001000000010FC000020F802002092
:080414000000001000000010C0
:1004200010B50446074B1868074BA3FB0030800942
:1004300000F090F8002221464FF0FF3000F044F821
:10044000002010BD0C000020D34D621008B50B4BEE
:100450001A6842F400721A601A6842F480621A60E4
:100460001A6842F480721A60032000F00FF80F201F
:10047000FFF7D6FF01F09CFF002008BD003C0240C2
:10048000014B1868704700BFEC02002010B504460D
:10049000C31E042B0FD80A4AD36823F4E0631B045D
:1004A0001B0C240204F4E064234343F0BF6343F4D1
:1004B0000033D36010BDA421024800F049FCEAE7F4
:1004C00000ED00E0B82C000870B505460C46164655
:1004D0000F2A25D80F2C28D81B4BDB68C3F3022327
:1004E000C3F10702042A28BF0422191D062921D9B5
:1004F000033B4FF0FF3101FA02F224EA02049C4070
:1005000001FA03F326EA03063443002D14DB240129
:10051000E4B205F1604505F5614585F8004370BD1D
:10052000BC210A4800F014FCD4E7BD21074800F0C4
:100530000FFCD1E70023DCE705F00F052401E4B24E
:10054000034B5C55EBE700BF00ED00E0B82C000862
:1005500014ED00E00138B0F1807F0AD2064B5860FC
:10056000064AF02182F823100020986007221A60C2
:1005700070470120704700BF10E000E000ED00E090
:1005800010B50446042800D038B9042C0BD0094A11
:10059000136823F00403136010BD40F2B311064842
:1005A00000F0D6FBF1E7034A136843F0040313603D
:1005B000F2E700BF10E000E0B82C000830B583B0CF
:1005C000044603680F2B29D8236813F0010F3DD090
:1005D0006368012B01D9052B25D1A34B9B6803F040
:1005E0000C03042B29D0A04B9B6803F00C03082BB1
:1005F0001ED022799D4B1A706368002B50D0FFF7F4
:100600003FFF0546984B1B6813F4003F1ED1FFF7D0
:1006100037FF401B6428F5D90320E3E1F521944816
:1006200000F096FBD0E7FA21914800F091FBD4E767
:100630008D4B5B6813F4800FDBD08B4B1B6813F47E
:10064000003F03D06368002B00F0C981236813F0DA
:10065000020F5DD0E368012B31D823691F2B34D8FA
:10066000814B9B6813F00C0F3AD07F4B9B6803F0D3
:100670000C03082B2FD0E368002B74D07D4B012294
:100680001A60FFF7FDFE0546774B1B6813F0020F5B
:100690005AD1FFF7F5FE401B0228F5D90320A1E14E
:1006A000FFF7EEFE0546704B1B6813F4003FCDD0FC
:1006B000FFF7E6FE401B6428F5D9032092E14FF4D2
:1006C00096716B4800F044FBC7E740F22D11684873
:1006D00000F03EFBC4E7644B5B6813F4800FCAD1A3
:1006E000614B1B6813F0020F04D0E368012B01D0AB
:1006F000012077E15C48036823F0F8032169F822C0
:1007000092FAA2F2B2FA82F201FA02F21343036001
:10071000236813F0080F50D06369012B35D8636943
:10072000002B38D0544B01221A60FFF7A9FE054672
:100730004D4B5B6F13F0020F3FD1FFF7A1FE401B43
:100740000228F5D903204DE14748036823F0F80358
:100750002169F82292FAA2F2B2FA82F201FA02F2C6
:1007600013430360D4E7434B00221A60FFF788FE6F
:1007700005463D4B1B6813F0020FC9D0FFF780FE02
:10078000401B0228F5D903202CE140F26D113848B6
:1007900000F0DEFAC3E7384B00221A60FFF770FE64
:1007A0000546314B5B6F13F0020F06D0FFF768FE72
:1007B000401B0228F5D9032014E1236813F0040F2D
:1007C00060D0A368012B01D9052B1FD10023019311
:1007D000254B1A6C42F080521A641B6C03F0805354
:1007E0000193019B254A136843F480731360FFF75C
:1007F00047FE0546214B1B6813F4807F0CD1FFF7A1
:100800003FFE401B0228F5D90320EBE040F2971190
:10081000174800F09DFAD9E7227A194B1A70A3689D
:1008200083B1FFF72DFE05460F4B1B6F13F0020F30
:1008300028D1FFF725FE401B41F288339842F3D9B7
:100840000320CFE0FFF71CFE0546074B1B6F13F09C
:10085000020F17D0FFF714FE401B41F28833984275
:10086000F3D90320BEE000BF003802400238024046
:10087000FC2C000800004742800E474200700040F8
:1008800070380240A369022B39D8A369002B00F00D
:10089000A880564A926802F00C02082A00F0A48050
:1008A000022B40F08880E36913B1B3F5800F2CD19F
:1008B000236A3F2B2FD8636A323BB3F5BF7F30D812
:1008C000A36A022B05D0042B03D0062B01D0082BE2
:1008D0002DD1E36A043B0B2B2FD8454B00221A6025
:1008E000FFF7CEFD0546414B1B6813F0007F2AD071
:1008F000FFF7C6FD401B0228F5D9032072E04FF434
:10090000E6713C4800F024FABFE740F2D5113948BF
:1009100000F01EFACCE74FF4EB71364800F018FAFD
:10092000C9E740F2D711334800F012FAC8E74FF494
:10093000EC71304800F00CFACBE740F2D9112D48A9
:1009400000F006FAC9E7E369226A1343616A47F6D1
:10095000C07292FAA2F2B2FA82F201FA02F21343E0
:10096000A26A5208013A4FF4403191FAA1F1B1FA6A
:1009700081F18A401343E16A4FF0706292FAA2F269
:10098000B2FA82F201FA02F21343184A5360184B8A
:1009900001221A60FFF774FD0446144B1B6813F024
:1009A000007F06D1FFF76CFD001B0228F5D903205C
:1009B00018E0002016E00E4B00221A60FFF760FDE1
:1009C00004460A4B1B6813F0007F06D0FFF758FD62
:1009D000001B0228F5D9032004E0002002E00120DA
:1009E00000E0002003B030BD0120FBE700380240EA
:1009F00060004742FC2C00081F4B9B6803F00C036F
:100A0000082B36D11C4B586800F03F005B6813F48C
:100A1000800F1ED0194AB2FBF0F2174B586847F608
:100A2000C073184093FAA3F3B3FA83F3D84000FBE2
:100A300002F0114B5B6803F440334FF4403292FAFA
:100A4000A2F2B2FA82F2D34001335B00B0FBF3F0C2
:100A500070470A4AB2FBF0F2074B586847F6C0737A
:100A6000184093FAA3F3B3FA83F3D84000FB02F0E3
:100A7000DFE70248704700BF003802400024F4005E
:100A800070B504460D460368013B0E2B11D8072DA7
:100A900015D88C4B1B6803F00F03AB4215D2EBB299
:100AA000884A1370136803F00F03AB420DD0012086
:100AB00070BD40F23721844800F04AF9E7E74FF46F
:100AC0000E71814800F044F9E3E7236813F0020F48
:100AD00018D0A3687BB1802B0DD0902B0BD0A02B0E
:100AE00009D0B02B07D0C02B05D0D02B03D0E02BE2
:100AF00001D0F02B37D1754A936823F0F003A16839
:100B00000B439360236813F0010F73D06368032BCA
:100B10002FD86368012B32D09A1E012A36D96B4A2E
:100B2000126812F0020F00F0CA8068498A6822F049
:100B3000030213438B60FFF7A3FC06466368012B97
:100B40002BD0022B38D0032B45D0604B9B6813F081
:100B50000C0F4FD0FFF794FC801B41F28833984272
:100B6000F3D90320A4E740F24F21574800F0F0F8F2
:100B7000C1E740F25621544800F0EAF8C9E7534A69
:100B8000126812F4003FD0D1012091E74F4A126859
:100B900012F0007FC9D101208AE74C4B9B6803F01B
:100BA0000C03042B26D0FFF76BFC801B41F288332B
:100BB0009842F2D903207BE7444B9B6803F00C0377
:100BC000082B17D0FFF75CFC801B41F2883398425A
:100BD000F2D903206CE73D4B9B6803F00C030C2B10
:100BE00008D0FFF74DFC801B41F288339842F2D9C0
:100BF00003205DE7334B1B6803F00F03AB4209D9B9
:100C0000EAB2304B1A701B6803F00F03AB4201D0FD
:100C100001204DE7236813F0040F14D0E3685BB1A3
:100C2000B3F5805F08D0B3F5A05F05D0B3F5C05F22
:100C300002D0B3F5E05F36D1244A936823F4E05341
:100C4000E1680B439360236813F0080F15D0236904
:100C50005BB1B3F5805F08D0B3F5A05F05D0B3F505
:100C6000C05F02D0B3F5E05F23D1184A936823F444
:100C70006043216943EAC1039360FFF7BDFE134B54
:100C80009B6803F0F003F02292FAA2F2B2FA82F229
:100C9000D3400F4AD35CD8400E4B18600F20FFF7AB
:100CA000BFFB002004E74FF42D71074800F050F817
:100CB000C2E740F2BB21044800F04AF8D5E7012022
:100CC000F6E600BF003C0240FC2C00080038024061
:100CD000EC2C00080C000020014B1868704700BF86
:100CE0000C000020FEE7000008B5034800F052F8B1
:100CF0000120FFF7F7FF00BF2C2D000808B50346C1
:100D00000C4A12685AB10B4A1068033323F00303EC
:100D10000344094A934206D8064A136008BD054AAF
:100D200006491160EFE701F045FB0C2303604FF02B
:100D3000FF30F3E70001002000FC0020F802002053
:100D400001230360014B0B60704700BF04000020CB
:100D500008B50A460146024800F004F8FFF7C4FF50
:100D6000402D00080FB400B583B004AB53F8042B3A
:100D700001938021064801F057FB002803DD01465E
:100D8000034800F047F803B05DF804EB04B0704787
:100D90000801002010B5044601F012FB0146204670
:100DA00000F038F80121024800F034F810BD00BF0F
:100DB000042E00082DE9F04385B004460F46435643
:100DC0000BB10E461EE0042528462146ABBE044664
:100DD000384605B0BDE8F08314F9011B04AA1A4493
:100DE00002F8101C0133AB42F6D304AA13440022CC
:100DF00003F8102C4FF00408E94640464946ABBEC4
:100E00008046761B002EE3D03546102E28BF1025D5
:100E10000023E8E708B5FFF7CDFF08BD08B500F0EF
:100E200093F8024A024B9A6008BD00BF0000000818
:100E300000ED00E0F8B504460D4617461E4627486B
:100E4000FFF790FF21682648FFF78CFF616825486F
:100E5000FFF788FFA1682448FFF784FFE168234873
:100E6000FFF780FF21692248FFF77CFF6169214875
:100E7000FFF778FFA1692048FFF774FFE1691F4879
:100E8000FFF770FF1E48FFF76DFF29461D48FFF76B
:100E900069FF1D4CE16A1D48FFF764FF216B1C4888
:100EA000FFF760FFE16B1B48FFF75CFF15F0800F59
:100EB0000AD115F4004F0CD11748FFF753FF0699DC
:100EC0001648FFF74FFFF8BD39461548FFF74AFFB0
:100ED000EFE731461348FFF745FFEDE76C2D0008BB
:100EE0007C2D00088C2D00089C2D0008AC2D0008DE
:100EF000BC2D0008CC2D0008DC2D0008EC2D0008CE
:100F0000FC2D0008082E000800ED00E0182E000857
:100F1000282E0008382E0008682E0008702E0008C1
:100F2000482E0008582E000883691A888A4201D08A
:100F3000002070470268033A012A03D80233836114
:100F400001207047002070470C4B1A6842F00102E4
:100F50001A60002199601A6822F0847222F48032AB
:100F60001A60074A5A601A6822F480221A60D9600F
:100F7000044B4FF000629A60704700BF0038024097
:100F80001030002400ED00E0224B9B6803F00C03BE
:100F9000042B14D0082B16D01BB11F4B1F4A1A600C
:100FA00002E01D4B1D4A1A601A4B9B68C3F30313E2
:100FB0001B4AD15C184A1368CB4013607047164B2C
:100FC000164A1A60F0E7134B5A685B6803F03F0358
:100FD00012F4800F13D0114AB2FBF3F20D4B5B6891
:100FE000C3F3881303FB02F30A4A5268C2F30142B7
:100FF00001325200B3FBF2F3074A1360D4E7074A09
:10100000B2FBF3F2034B5B68C3F3881303FB02F3F9
:10101000EAE700BF003802400C0000200024F40082
:10102000B42E000810B500240EE00F4B1A680F4BC9
:101030001B68D25C224102F001020D4B195D0120B8
:1010400000F0DCFC0134E4B2072CEED9074A136847
:1010500001331360074A1268934200D010BD034B5E
:1010600000221A60FAE700BF8C01002090010020E6
:10107000C42E00088801002038B500240EE0094B7A
:101080001D5D01222946104600F092FB00231A46FE
:101090002946012000F0D2FB0134E4B2072CEED93E
:1010A00038BD00BFC42E0008024B1860024B196007
:1010B000704700BF8C0100208801002008B502495C
:1010C0007D2000F099FE08BD251000080023072BA5
:1010D0003AD810B418E01F4951F8220048F6B70179
:1010E00088420DD91B4951F8221049F640429142DD
:1010F00006D80122A24018490C781443E4B20C70BF
:101100000133DBB2072B18D81C4603F11102114939
:1011100051F8220043F697218842DCD90D4951F855
:10112000220044F620618842D5D801229A400A491B
:101130000C7824EA02040C70E2E70023074A1370DB
:10114000074A137010BC70470023044A1370044A06
:1011500013707047940100205D0200205C020020A3
:101160005E02002038B5104B1B788BB10F4C2578F0
:1011700000F05CFE0E4B43F8250000F0EFFD0D493A
:101180004FF47A7000F01EFE23780133237038BDCF
:1011900000F0E4FD07494FF47A7000F013FE024BB3
:1011A00001221A70F3E700BF5E0200205C020020FB
:1011B00094010020CD10000808B5062000F072FC54
:1011C0000349002000F0A2F900F0FCF908BD00BFBF
:1011D00065110008024B1A78027000221A707047DD
:1011E0005D02002038B50546072419E045FA04F2EF
:1011F00002F001020F21012000F000FC01220D216C
:10120000104600F0FBFB022000F0C6FD00220D217D
:10121000012000F0F3FB022000F0BEFD013C64B2AF
:10122000002CE3DA01220E21104600F0E7FB022039
:1012300000F0B2FD00220E21012000F0DFFB0220B1
:1012400000F0AAFD38BD38B50546072419E045FA77
:1012500004F202F001020C21012000F0CFFB012278
:101260000D21104600F0CAFB022000F095FD00227F
:101270000D21012000F0C2FB022000F08DFD013C99
:1012800064B2002CE3DA01220E21104600F0B6FB16
:10129000022000F081FD00220E21012000F0AEFBB3
:1012A000022000F079FD38BD08B50122032100209D
:1012B00000F07EFA012300220321104600F0BEFA5E
:1012C00001220221002000F073FA012300220221F2
:1012D000104600F0B3FA08BD08B50222072100202D
:1012E00000F066FA05220721002000F00BFB022225
:1012F0000521002000F05CFA05221146002000F0D4
:1013000001FB02220421002000F052FA05220421F0
:10131000002000F0F7FA00F045FC08BD08B50122F6
:101320000221002000F06AFB642000F035FD00225D
:101330000221104600F062FB012000F02DFD012289
:101340000221002000F05AFB642000F025FD00225D
:101350000221104600F052FB642000F01DFD012226
:101360000221002000F04AFB782000F0FFFC08BDBD
:1013700030B583B00546002002AC04F8010D01220F
:10138000032100F03BFB2146284600F019FC03B086
:1013900030BD30B583B00546002002AC04F8010D25
:1013A0000246032100F02AFB2146284600F008FCF3
:1013B00003B030BD08B5FFF777FFFFF78DFFFFF7EC
:1013C000ADFF3A20FFF7E5FF5520FFF7D1FF1120D1
:1013D000FFF7DFFF0A2000F0C9FC2920FFF7D9FF43
:1013E00008BD2DE9F04180460D4614461F46069E75
:1013F0002A20FFF7CEFF0020FFF7BAFF4046FFF795
:10140000B7FF0020FFF7B4FFC5F17F00C0B2FFF7C0
:10141000AFFF2B20FFF7BDFF0020FFF7A9FF3846E5
:10142000FFF7A6FF0020FFF7A3FFC4F19F00C0B2A3
:10143000FFF79EFF2C20FFF7ACFF00240AE036F8F0
:101440001400C5B2000AFFF793FF2846FFF790FF8C
:101450000134A4B2B4F5A04FF1D3BDE8F08100008F
:1014600008B5024B1B6803B1984708BD6002002015
:1014700008B5024B5B6803B1984708BD60020020C5
:1014800008B5024B9B6803B1984708BD6002002075
:1014900008B5024BDB6803B1984708BD6002002025
:1014A00008B5024B1B6903B1984708BD60020020D4
:1014B00008B5024B5B6903B1984708BD6002002084
:1014C00008B5024B9B6903B1984708BD6002002034
:1014D00008B5024BDB6903B1984708BD60020020E4
:1014E00003490B68012202FA00F003430B607047C6
:1014F000003C014004490B68012202FA00F023EA93
:1015000000030B60704700BF003C0140014B43F8F3
:10151000201070478002002003494B69012202FA23
:1015200000F003434B617047003C0140034B5B6993
:1015300023FA00F000F00100704700BF003C0140BA
:1015400030B483080A4A023352F8234000F0030003
:1015500080000F25854024EA050442F8234052F814
:1015600023408140214342F8231030BC704700BF24
:101570000038014001290BD0B1B1114AD1680123D3
:1015800003FA00F00143D1609368184390607047FC
:101590000B4BD968012202FA00F00143D9609A6826
:1015A00022EA000098607047054BD968012202FAD0
:1015B00000F021EA0001D9609A68104398607047F2
:1015C000003C014070B5002404B170BD0E4E06EB26
:1015D0008405697816F82400FFF7B2FFA97816F899
:1015E0002400FFF7C7FFEB78012B07D0064B13F859
:1015F0002400FFF77FFF0134E4B2E5E716F824008A
:10160000FFF76EFFF7E700BF1000002008B5044B9E
:101610001B6803B198470020FFF77EFF08BD00BF9D
:101620008002002008B5044B5B6803B19847012095
:10163000FFF772FF08BD00BF8002002008B5044B11
:101640009B6803B198470220FFF766FF08BD00BF03
:101650008002002008B5044BDB6803B198470320E3
:10166000FFF75AFF08BD00BF8002002008B5044BF9
:101670001B6903B198470420FFF74EFF08BD00BF68
:101680008002002008B50520FFF750FF012807D190
:101690001D4B5B6903B198470520FFF73DFF08BD6F
:1016A0000620FFF743FF012807D1174B9B6903B1C1
:1016B00098470620FFF730FFF1E70720FFF736FFD6
:1016C000012807D1104BDB6903B198470720FFF7CA
:1016D00023FFE4E70820FFF729FF012807D10A4B81
:1016E0001B6A03B198470820FFF716FFD7E70920C8
:1016F000FFF71CFF0128D2D1034B5B6A03B1984767
:101700000920FFF709FFCAE78002002008B50A2078
:10171000FFF70CFF012807D1244B9B6A03B19847C0
:101720000A20FFF7F9FE08BD0B20FFF7FFFE012896
:1017300007D11E4BDB6A03B198470B20FFF7ECFE85
:10174000F1E70C20FFF7F2FE012807D1174B1B6BC6
:1017500003B198470C20FFF7DFFEE4E70D20FFF709
:10176000E5FE012807D1114B5B6B03B198470D20B3
:10177000FFF7D2FED7E70E20FFF7D8FE012807D1EA
:101780000A4B9B6B03B198470E20FFF7C5FECAE7D3
:101790000F20FFF7CBFE0128C5D1044BDB6B03B153
:1017A00098470F20FFF7B8FEBDE700BF800200207A
:1017B000034620B9A1F10D00C0B202280DD9012BBA
:1017C00007D010B4012B17D043B1022B22D010BC8C
:1017D0007047C81EC0B20128F3D87047144B1C686C
:1017E00048000321814024EA010119601C6802FAC3
:1017F00000F121431960EAE70E4B1C684800032101
:10180000814024EA010119601C6802FA00F12143B9
:101810001960DCE7084B1868490003248C4020EA73
:1018200004001860186802FA01F101431960CEE75C
:1018300000000240000402400008024070B4044668
:1018400020B9A1F10D00C0B2022806D9012C06D0A2
:10185000012C21D044B1022C36D070BC7047C81E78
:10186000C0B20128F4D8F8E7234885684C00032665
:10187000A64025EA060585608568A3402B43836062
:10188000436801248C4023EA04034360436802FA5E
:1018900001F119434160E0E7184885684C000326D0
:1018A000A64025EA060585608568A3402B43836032
:1018B000436801248C4023EA04034360436802FA2E
:1018C00001F119434160C8E70D4884684E000325C3
:1018D000B54024EA050484608468B34023438360F0
:1018E000436801248C4023EA04034360436802FAFE
:1018F00001F119434160B0E70000024000040240DA
:1019000000080240034620B9A1F10D00C0B2022830
:101910000FD9012B09D010B4072935D8012B17D0C6
:1019200043B1022B22D010BC7047C81EC0B20128A0
:10193000F1D870472E4C236A89000F20884023EA93
:1019400000032362236A02FA01F119432162EAE7E4
:10195000284C236A89000F20884023EA0003236271
:10196000236A02FA01F119432162DCE7224C236A5F
:1019700089000F20884023EA00032362236A02FAC9
:1019800001F119432162CEE7012B21D083B1022B53
:10199000C9D1194B586A083989000F248C4020EAB4
:1019A00004005862586A02FA01F101435962BAE729
:1019B0000F4C636AA1F1080080000F21814023EAE7
:1019C00001036362636A02FA00F119436162AAE7E4
:1019D0000848446AA1F108039B000F21994024EABA
:1019E00001014162416A02FA03F30B4343629AE741
:1019F000000002400004024000080240034620B9F3
:101A0000A1F10D00C0B202280BD9012B05D0012B8A
:101A10001BD03BB1022B2BD07047C81EC0B201288F
:101A2000F5D8704742B1012AFBD11B48436902FA3D
:101A300001F119434161704717484369012202FAD5
:101A400001F123EA01014161704742B1012AE8D165
:101A50001248436902FA01F11943416170470F4886
:101A60004369012202FA01F123EA01014161704751
:101A700042B1012AD5D10A48436902FA01F119435A
:101A80004161704706484369012202FA01F123EAE5
:101A900001014161C5E700BF0000024000040240AF
:101AA0000008024010B44409064951F8243000F0FF
:101AB0001F00012202FA00F0184341F8240010BC74
:101AC000704700BF00E100E00A4A136843F00103D9
:101AD0001360084B1B6813F0020FFAD0054B9A688D
:101AE00022F003029A609A689A601A6842F400220F
:101AF0001A60704700380240032826D81F2924D8CE
:101B0000032822D8DFE800F0020A121A0F48036CFB
:101B1000012202FA01F11943016470470B48436C3A
:101B2000012202FA01F11943416470470748036B2F
:101B3000012202FA01F11943016370470348436B24
:101B4000012202FA01F11943416370470038024053
:101B5000134B9B68C3F30313082B12D0092B12D02D
:101B60000A2B12D00B2B12D00C2B12D00D2B12D013
:101B70000E2B12D00F2B01D0012070474FF40070B4
:101B800070470220704704207047082070471020DB
:101B9000704740207047802070474FF48070704736
:101BA00000380240054B00225A6040F207321A60AA
:101BB0001A6842F040021A60704700BF00300140CE
:101BC0000A4B1B788BB90A4B9B6813F0020FFAD0B3
:101BD000074BD860064B9B6813F0010FFAD0044BFB
:101BE000DB680B70014B00221A707047CA0200209C
:101BF0000030014008B50F4BD8680F4A13780F49E1
:101C00000968C8540133DBB213700D4A127893424D
:101C100009D100220B4B1A7006494B6823F0800350
:101C20004B60904708BD084A1268D25C014BDA60ED
:101C3000F8E700BF00300140C9020020C0020020C8
:101C4000C8020020CA020020C402002008B50F4BC1
:101C5000D8680F4A13780F490968C8540133DBB2BA
:101C600013700D4A1278934209D100220B4B1A705F
:101C700006494B6823F080034B60904708BD084A33
:101C80001268D25C014BDA60F8E700BF0034014013
:101C9000C9020020C0020020C8020020CA020020A1
:101CA000C402002008B50F4BD8680F4A13780F49BB
:101CB0000968C8540133DBB213700D4A127893429D
:101CC00009D100220B4B1A7006494B6823F08003A0
:101CD0004B60904708BD084A1268D25C014BDA603D
:101CE000F8E700BF003C0040C9020020C00200200D
:101CF000C8020020CA020020C402002010B5044619
:101D0000FFF726FF044BB3FBF0F0044BA3FB0030BE
:101D1000800900FB04F010BD0024F400D34D6210D4
:101D200010B50446FFF714FF044BB3FBF0F0044B6F
:101D3000A3FB0030800C00FB04F010BD0024F40075
:101D400083DE1B43044B1A6842F004021A601A68CF
:101D500022F002021A60704710E000E0024B0022FD
:101D60005A609A60704700BF10E000E008B5FFF7C6
:101D7000C5FF084B58601A6842F001021A60054B13
:101D80001B6813F4803FFAD0024B00225A609A601D
:101D900008BD00BF10E000E008B580B2FFF7C0FF4B
:101DA000074B58601A6842F001021A60044B1B6826
:101DB00013F4803FFAD0024B00225A609A6008BDAB
:101DC00010E000E010B50C46FFF798FF074B586095
:101DD0001A6842F001021A60054A1460054A01219E
:101DE00011701A6842F002021A6010BD10E000E0A3
:101DF000CC020020CB02002010B50C4680B2FFF7C9
:101E00008FFF074B58601A6842F001021A60054ABA
:101E10001460054A022111701A680A431A6010BD45
:101E200010E000E0CC020020CB020020024B5868FA
:101E30009B68C01A704700BF10E000E008B50D4B6A
:101E40001B6843B10C4B1B78012B05D0094B1B6859
:101E500098470A4B1B6808BD084B1A6822F001021C
:101E60001A601A6822F002021A6000225A609A6010
:101E7000ECE700BFCC020020CB02002010E000E025
:101E800008B51F4B1B6813F0800F18D01D4A13783C
:101E90000133DBB213701C4A1268D35C63B9194A70
:101EA00013701A4A13701A4B1B689847144AD36868
:101EB00023F08003D36008BD114AD360FBE7104BC9
:101EC0001B6813F0200FF6D00D4B58680D4A13789D
:101ED00010490968C8540133DBB213700E4A1278F6
:101EE0009342E8D10023074A1370084A1370084B45
:101EF0001B689847024AD36823F02003D360DAE7CF
:101F000000100140DD020020D4020020DE0200208B
:101F1000D8020020D0020020DC02002008B51F4BB0
:101F20001B6813F0800F18D01D4A13780133DBB201
:101F300013701C4A1268D35C63B9194A13701A4AA9
:101F400013701A4B1B689847144AD36823F0800318
:101F5000D36008BD114AD360FBE7104B1B6813F038
:101F6000200FF6D00D4B58680D4A137810490968B8
:101F7000C8540133DBB213700E4A12789342E8D191
:101F80000023074A1370084A1370084B1B689847D0
:101F9000024AD36823F02003D360DAE7004400400C
:101FA000DD020020D4020020DE020020D802002042
:101FB000D0020020DC02002008B51F4B1B6813F084
:101FC000800F18D01D4A13780133DBB213701C4AFE
:101FD0001268D35C63B9194A13701A4A13701A4B0A
:101FE0001B689847144AD36823F08003D36008BD68
:101FF000114AD360FBE7104B1B6813F0200FF6D09B
:102000000D4B58680D4A137810490968C8540133BC
:10201000DBB213700E4A12789342E8D10023074ACC
:102020001370084A1370084B1B689847024AD3681C
:1020300023F02003D360DAE700140140DD02002022
:10204000D4020020DE020020D8020020D0020020AE
:10205000DC02002070B594B000240194204B1A6C6F
:1020600042F080521A641B6C03F080530193019B71
:1020700002941C4B1A6842F440421A601B6803F435
:1020800040430293029B0123089309934FF480037A
:102090000F93102310934FF4A873119304261296F4
:1020A0000723139302250E9508A8FEF787FA0F233E
:1020B0000393049505944FF480530693079429469F
:1020C00003A8FEF7DDFCFEF707FE074BA3FB00307D
:1020D0008009FEF73FFA3046FEF752FA14B070BDA1
:1020E0000038024000700040D34D621008B5FEF782
:1020F000ADF9FFF7AFFFFEF747FF08BD00B583B0AE
:10210000054B009300231A4619461846FFF769F954
:1021100003B05DF804FB00BF18B9020870B582B0C7
:10212000184B009300231A4619461846FFF759F931
:10213000002519E0FF20FFF786F82B19124AD05C22
:10214000FFF750F80120A040C043C0B2FFF77BF872
:102150000134E4B2072CEDD90136F6B20E2E01D8C7
:102160000024F7E70135EDB23F2D01D80026F5E751
:1021700049F628610548FEF797FFFEF79FFF02B07A
:1021800070BD00BFCC2E000814000020CCCE00088B
:1021900070B582B0194B009300231A4619461846B1
:1021A000FFF71FF900251BE0FF20FFF74CF82A1965
:1021B000134B134493F84000FFF714F80120A0409C
:1021C000C043C0B2FFF73FF80134E4B2072CEBD9AB
:1021D0000136F6B20E2E01D80024F7E70135EDB234
:1021E0003F2D01D80026F5E74AF622410548FEF7C3
:1021F0005BFFFEF763FF02B070BD00BFF46C010827
:1022000014000020F40C020800B583B0194B1B78B1
:10221000012B0CD043B9184B1B78012B17D0022B84
:102220001ED0144B01221A7003B05DF804FB124B50
:102230001B78012B05D0022B06D00E4B00221A7002
:10224000F2E7FFF76BFFF8E7FFF7A2FFF5E70B4BAD
:10225000009300231A4619461846FFF7C2F8E0E734
:10226000074B009300231A4619461846FFF7B9F8A2
:10227000D7E700BFE0020020DF020020CC2E0008DC
:10228000F46C010800B583B000248DF80740FFF717
:102290001BFC0C210120FFF72FFC0E210120FFF772
:1022A0002BFC21460220FFF727FC01210220FFF72B
:1022B00023FCFFF747FDFFF77DF8FEF7DDFEFEF795
:1022C0007BFF06E0FFF71AFF00238DF80730374A3F
:1022D00013700DF10700FEF77DFF9DF80730403BBE
:1022E000122BF6D801A252F823F000BF4B230008AE
:1022F000D32200085D230008D322000839230008F8
:10230000C5220008D3220008D3220008D3220008E7
:10231000D322000881230008D3220008D32200081A
:10232000D3220008D3220008D3220008D3220008B9
:10233000D3220008A5230008FFF7F0FE00238DF844
:1023400007301A4B01221A70C3E7FFF721FF002361
:102350008DF80730154B02221A70BAE7134B1B7821
:10236000012B07D0022BB4D1FFF7D8FE0F4B01226F
:102370001A70AEE7FFF70CFF0C4B02221A70A8E7A9
:102380000A4B1B78012B07D0022BA2D1FFF7C6FE08
:10239000064B01221A709CE7FFF7FAFE034B02225C
:1023A0001A7096E7FFF730FF93E700BFDF020020C7
:1023B00070470000014B1868704700BF9400002070
:1023C000034613F8012B002AFBD1181A0138704775
:1023D00030B5141E05469BB0184605DA8B232B60DA
:1023E0004FF0FF301BB030BD4FF40273ADF80C302E
:1023F00014BF04F1FF332346029305934FF6FF7396
:1024000000910491ADF80E3002461E9B69462846A5
:1024100000F072F8431CBCBF8B232B60002CE1D072
:10242000009B00221A70DDE707B5009313460A46A9
:10243000014603480068FFF7CBFF03B05DF804FBDB
:10244000940000202DE9F0478E689E4282460C469B
:102450009046994637D88A8912F4906F31D0256812
:1024600009696F1A6569022305EB450595FBF3F5CC
:1024700009F101033B449D4238BF1D46530530D549
:10248000294600F07FFB064650B90C23CAF80030FD
:10249000A38943F04003A3814FF0FF30BDE8F087EC
:1024A0003A46216900F0FCFAA38923F4906343F0D3
:1024B0008003A381266165613E44ED1B2660A56013
:1024C0004E464E4500D94E4632464146206800F001
:1024D000F2FAA3689B1BA36023681E4426600020B9
:1024E000DCE72A4600F0A8FB06460028E2D1216975
:1024F000504600F0F9FAC8E72DE9F04F9DB080464C
:1025000003938B891D060C4616460FD50B696BB9D4
:10251000402100F037FB2060206128B90C23C8F867
:1025200000304FF0FF30C7E0402363610023099380
:1025300020238DF8293030238DF82A304FF0010BFD
:1025400037463D4615F8013B0BB1252B3ED1B7EB85
:10255000060A0BD05346324621464046FFF772FF2B
:10256000013000F0A480099B534409933B78002B71
:1025700000F09D8000234FF0FF32CDE90523049346
:1025800007938DF853301A932F46052217F8011B35
:102590004F4800F035FA049BD0B9D90644BF202239
:1025A0008DF853201A0744BF2B228DF853202A7828
:1025B0002A2A15D0079A2F4600200A25394611F8F5
:1025C000013B303B092B4DD9B8B10FE02F46B8E79E
:1025D0003F4A801A0BFA00F0184304903D46D3E7B7
:1025E000039A111D12680391002A01DB079204E08F
:1025F000524243F00203079204933B782E2B0CD1F6
:102600007B782A2B33D1039B1A1D1B680392002B66
:10261000B8BF4FF0FF33023705932E4D39780322B0
:10262000284600F0EDF938B14023401B03FA00F0D2
:10263000049B034301370493397827488DF8281009
:1026400006227E1C00F0DCF9002838D0234B13BB97
:10265000039B073323F0070308330393099B4B4481
:1026600009936DE705FB023201200F46A6E7002320
:102670000137059319460A25384610F8012B303AE0
:10268000092A03D9002BC8D00591C6E705FB012113
:1026900001230746F0E703AB00932246104B04A941
:1026A0004046AFF30080B0F1FF3F8146D6D1A38909
:1026B0005B063FF536AF09981DB0BDE8F08F03AB60
:1026C00000932246064B04A9404600F081F8EAE751
:1026D000185903081E590308225903080000000076
:1026E000452400082DE9F04791461F468A680B698A
:1026F000DDF820809342B8BF1346C9F8003091F846
:10270000432006460C4612B10133C9F80030236855
:10271000990642BFD9F800300233C9F80030256865
:1027200015F0060507D104F1190AE368D9F800206D
:102730009B1AAB4228DC94F843302268003318BF60
:10274000012392062DD404F1430239463046C04796
:10275000013020D02368E568D9F8002003F0060393
:10276000042B08BFAD1AA36822690CBF25EAE575E2
:1027700000259342C4BF9B1AED184FF000091A348C
:102780004D451AD1002008E0012352463946304613
:10279000C047013003D14FF0FF30BDE8F08701356D
:1027A000C3E7E1185A1C302081F84300224494F812
:1027B000451082F843100233C5E70123224639460B
:1027C0003046C0470130E6D009F10109D8E70000E2
:1027D0002DE9F04301F1430C0C46097E85B06E29CA
:1027E0001746064698460C9A00F0B38022D8632913
:1027F00036D00AD8002900F0B980582900F083802B
:1028000004F1420584F8421032E0642901D06929BC
:10281000F6D120681368050603F104012AD51B6868
:102820001160002B03DA2D225B4284F843206F48AD
:102830000A2239E0732900F09D8008D86F2920D042
:102840007029DDD1236843F02003236003E075295C
:1028500017D07829D4D1782384F84530644855E0DE
:102860001368191D1B68116004F1420584F8423099
:1028700001238CE01B68116010F0400F18BF1BB2E1
:10288000CFE713682568181D1060280601D51B685E
:1028900002E06806FBD51B8854486F2914BF0A2242
:1028A0000822002184F843106568A560002DC0F25D
:1028B0009580216821F004012160002B3DD1002D7D
:1028C00040F08E806546082A0BD12368DB0708D5C7
:1028D000236962689A42DEBF302305F8013C05F1A6
:1028E000FF35ACEB05032361CDF800803B4603AA1E
:1028F00021463046FFF7F6FE01304DD14FF0FF3054
:1029000005B0BDE8F083394884F8451013682168A4
:102910001D1D1B6815600A060BD5CA0744BF41F090
:10292000200121601BB9226822F0200222601022BF
:10293000B7E74D0648BF9BB2EFE76546B3FBF2F140
:1029400002FB1133C35C05F8013D0B460029F5D1AC
:10295000B9E7136825686169181D106028061B68AF
:1029600001D5196002E06A06FBD5198000232361B6
:102970006546B9E71368191D11601D68626800217A
:10298000284600F03DF808B1401B60606368236191
:10299000002384F84330A7E723692A4639463046A6
:1029A000C0470130AAD023689B0713D4E068039B7B
:1029B0009842B8BF1846A3E701234A463946304635
:1029C000C04701309AD00135E368039A9B1AAB42A5
:1029D000F2DCEBE7002504F11909F5E7002BACD197
:1029E000037884F8423004F142056CE72959030862
:1029F0003A59030800000000000000000000000039
:102A000001F0FF01102A2BDB10F0070F08D010F89F
:102A1000013B013A8B422DD010F0070F42B3F6D1A3
:102A2000F0B441EA012141EA014122F007047FF0BC
:102A300000070023F0E80256083C85EA010586EA13
:102A4000010685FA47F5A3FA87F586FA47F6A5FA4F
:102A500087F68EB9EED1F0BC01F0FF0102F007025B
:102A600032B110F8013B013A83EA010313B1F8D106
:102A70000020704701387047002D06BF35460338E7
:102A8000073815F0010F07D1013015F4807F02BF20
:102A9000013015F4C03F0130F0BC0138704700BF71
:102AA00010B5431E0A44914200D110BD11F8014BEC
:102AB00003F8014FF7E7884210B501EB020307D88E
:102AC000421E99420AD011F8014B02F8014FF8E773
:102AD0008342F5D98118D21AD34200D110BD13F820
:102AE000014D01F8014DF7E738B50546002945D0FD
:102AF00051F8043C0C1F002BB8BFE41800F0D2F8CA
:102B00001F4A1368104633B9636014602846BDE855
:102B1000384000F0C8B8A3420CD92168621893422B
:102B200004BF1A685B68636004BF521822600460C7
:102B3000ECE713465A680AB1A242FAD91968581844
:102B4000A0420BD120680144581882421960DDD19F
:102B5000106852685A6001441960D7E702D90C2303
:102B60002B60D3E7206821188A4204BF116852689D
:102B7000626004BF091821605C60C7E738BD00BF10
:102B8000E402002070B5CD1C25F0030508350C2D9E
:102B900038BF0C25002D064601DBA94203D90C23C2
:102BA0003360002070BD00F07DF8214A1468214692
:102BB00091B9204C23681BB9304600F063F82060BF
:102BC0002946304600F05EF8431C24D10C233360C4
:102BD000304600F068F8E4E70B685B1B18D40B2B59
:102BE0000FD90B60CD50CC18304600F05CF804F1E2
:102BF0000B00231D20F00700C31AD3D05A42E25025
:102C0000D0E78C424B6816BF636013600C46EBE75D
:102C10000C464968CCE7C41C24F00304A04205D04C
:102C2000211A304600F02EF80130CFD02560DBE7C6
:102C3000E4020020E8020020F8B5074614460E46DC
:102C400021B91146BDE8F840FFF79CBF22B9FFF754
:102C50004BFF25462846F8BD00F026F8A0420FD2CB
:102C600021463846FFF78EFF05460028F2D0314650
:102C70002246FFF715FF31463846FFF735FFE9E7F3
:102C80003546E7E738B5064C00230546084623607D
:102C9000FEF734F8431C02D1236803B12B6038BD22
:102CA000F00200207047704751F8043C181F002BB9
:102CB000BCBF0B58C01870472E2E2F7379737465E4
:102CC0006D2F7372632F73746D333266342D6861A8
:102CD0006C2F73746D3332663478785F68616C5F23
:102CE000636F727465782E630000000000000000BE
:102CF0000102030401020304060708092E2E2F73A4
:102D0000797374656D2F7372632F73746D333266CC
:102D1000342D68616C2F73746D3332663478785F4C
:102D200068616C5F7263632E6300000061626F72A2
:102D30007428292C2065786974696E672E2E2E0000
:102D40006173736572745F706172616D28292066AA
:102D500061696C65643A2066696C6520222573227E
:102D60002C206C696E652025640A00005374616331
:102D70006B206672616D653A0A00000020523020B7
:102D80003D2020253038580A000000002052312014
:102D90003D2020253038580A000000002052322003
:102DA0003D2020253038580A0000000020523320F2
:102DB0003D2020253038580A0000000020523132D2
:102DC000203D20253038580A00000000204C5220B9
:102DD0003D2020253038580A0000000020504320B4
:102DE0003D2020253038580A000000002050535262
:102DF000203D20253038580A000000004653522F4D
:102E00004641523A0A0000002043465352203D20DA
:102E100020253038580A00002048465352203D20D3
:102E200020253038580A00002044465352203D20C7
:102E300020253038580A00002041465352203D20BA
:102E400020253038580A0000204D4D464152203D83
:102E500020253038580A00002042464152203D20AB
:102E600020253038580A00004D6973630A000000BD
:102E7000204C522F4558435F52455455524E3D20E9
:102E8000253038580A0000005B486172644661755D
:102E90006C745D0A000000005B4275734661756CDE
:102EA000745D0A005B55736167654661756C745D9E
:102EB0000A000000000000000000000001020304FE
:102EC000060708090001020506070809569D148D2A
:102ED000727C527C527C727C9384727C106CAF63E7
:102EE0008F634E5B6E5BD06BF06B3174B384159562
:102EF000D06B6A424A3A4A3A8B420D53CC4ACC4A8A
:102F0000AB4A4A3A6A428B426A42AB42AC4AAB4253
:102F1000AC4AAB428B42CC4A0D53EC52CC4AAC4A41
:102F2000AB4AAB4AAB428B428B428B428B428B42C9
:102F30008B426B424A3A6A3A6A3A4A3A4A3A8B4276
:102F40006A424A3A6A3A6A3A6A428B42AB428B42D6
:102F50008B42CC4ACC4ACC4A2D532D53EC4ACC421E
:102F60008B42CC426A3A8F5BEC4A0932D7B57EE796
:102F70007EE73DDF7EE71CDF1DDF5DE73DDF3DDFF8
:102F80003DDF3DDF3DDF3DDF3DDF3DDF5DDF5DDF21
:102F90005DDF5DDF5DDF5DDF5DDF5DDF5DDF5DDF51
:102FA0003DDF3DDF3DDF3DDF3DDF3DDF3DDF3DDF41
:102FB0003DDF3DDF3DDF3DDF3DDF3DDF5DE75DE7E1
:102FC0005DE75DDF5DDF5DDF5DDF3DDF769D1595F4
:102FD0009384527C527C727C9384727C1174AF63B4
:102FE0008F634E5B6E5BD06BF06B3174B384159561
:102FF0001174AB424A3A6A42AB42EC52CC4AAB4201
:10300000AC4A6A3A2A3A8B42AB428B42AB4A8B4279
:10301000AB42AB42AB42AC4ACC4AEC4ACC4AAC4A9B
:10302000AB42AB42AB428B428B428B428B428B42D8
:103030008B426B426A3A6A3A6A3A2A3A4A3A6B4295
:103040006A424A3A6A3A6A3A6A428B42AB428B42D5
:103050008B42CC4ACC4ACC4A2D532D53AB42293219
:10306000EC4AEC4A0D534E538B42D0635DE79FEF21
:103070005DE71CDF5DE77EE73DDF3DDF3DDF3DDFF8
:103080003DDF3DDF3DDF3DDF3DDF3DDF5DDF5DDF20
:103090005DDF5DDF5DDF5DDF5DDF5DDF5DDF3DDF70
:1030A0003DDF3DDF3DDF3DDF3DDF3DDF3DDF3DDF40
:1030B0003DDF3DDF3DDF3DDF3DDF3DDF5DE75DDFE8
:1030C0005DDF5DDF5DDF3DDF3DDF3DDF769D35951B
:1030D000B384527C527C727C9384527C1174CF6393
:1030E0008F634E5B8E5BD06BF06B11749384F48CAA
:1030F000527CEC4A4A3A8B42AB42EC4ACC4A8B4275
:10310000CC4A8B4209326B42CC4A8B42AB4AAB422F
:103110008B42AB4ACC4AAC4ACC4AEC52CC4AAC4A81
:10312000AB42AB42AB42AB428B428B428B426A42D8
:103130006B426B426A426B426A424A3A4A3A6B427B
:103140006A3A4A3A6A3A6A3A6A428B428B428B42FC
:103150008B42CC42CC4AEC4A2D532D53CC4A4A32B6
:103160000D4BEC4A4E5BCC4A29325ABEDFF75EE784
:103170005DE75DDF3DDF5EE75DDF3DDF3DDF3DDFDE
:103180003DDF3DDF3DDF3DDF3DDF3DDF5DDF5DDF1F
:103190005DDF5DDF5DDF5DDF5DDF5DDF3DDF3DDF8F
:1031A0003DDF3DDF3DDF3DDF3DDF3DDF3DDF3DDF3F
:1031B0003DDF3DDF3DDF3DDF3DDF3DDF5DDF5DDFEF
:1031C0005DDF3DDF3DDF3DDF3DDF3DDF569D559D52
:1031D000D38C727C527C727C9384517C1174CF6B43
:1031E0008F636E5B8E63D06BF06B11749384D48CA1
:1031F00072842D534A3A8B42AB4AEC4ACC4AAB42DA
:10320000ED52CC4A2A3A4A3A8B426B42AC4AAC4A1B
:103210008B42AB42CC4ACC4AAC4AEC4ACC4AAC4A90
:10322000AB4AAB4AAB428B428B426A3A6A3A4A3A61
:103230006A3A8B428B428B428B424A3A4A3A6B4201
:103240006A3A4A3A6A3A6A426A428B428B428B42F3
:103250008B42CC42CC4AEC4A2D530D4B8B3A6A3A06
:103260008B420D53CC4AE9311174DFEF5EE73DDF4D
:103270005DDF5EE73DDF3DDF5DDF3DDF3DDF3DDF05
:103280003DDF3DDF3DDF3DDF3DDF3DDF3DDF3DDF5E
:103290003DDF3DDF3DDF3DDF3DDF3DDF3DDF3DDF4E
:1032A0003DDF3DDF3DDF3DDF3DDF3DDF3DDF3DDF3E
:1032B0003DDF3DDF3DDF3DDF3DDF3DDF3DDF3DDF2E
:1032C0003DDF3DDF3DDF3DDF3DDF3DDF569D569D70
:1032D000F48C9284527C527C727C517C1174D06B41
:1032E000AF636E5B6E5BAF63D06BF073727CB48C5C
:1032F00093844E5B6A426B42CC4AEC4AAB42CC4A66
:103300000D53EC52AB424A3A09326A3AAC4ACC4AC3
:103310008B428B42CC4ACC4AAB42AB42CC4ACC4AE1
:10332000CC4ACC4AAB4AAB428B428B426A3A4A3ACD
:103330006A3A8B428B428B426B424A3A6A3A6B4200
:103340006A3A4A3A6A3A6A426A428B428B428B42F2
:103350008B42CC4AEC4AEC4A0D53EC4A6A3A6A3A40
:10336000EC4A8F6309326A425EDF7EE77EE77EE7E2
:103370001CDF3DDF5DE73DDF5EE73DDF3DDF3DDF3D
:103380003DDF3DDF3DDF3DDF3DDF3DDF3DDF3DDF5D
:103390003DDF3DDF3DDF3DDF3DDF3DDF3DDF3DDF4D
:1033A0003DDF3DDF3DDF3DDF3DDF3DDF3DDF3DDF3D
:1033B0003DDF3DDF3DDF3DDF3DDF3DDF3DDF3DDF2D
:1033C0003DDF3DDF3DDF3DDF3DDF3DDF569D769D4F
:1033D0001595B384727C517C727C517C1074D06BD7
:1033E000AF636E5B6E5B8F63AF63F06B527CD48CAC
:1033F0009384AF63AB4A6A3AAC4ACC4AAB42EC4ADC
:103400002D530D530D538B4209326A3ACC4ACC4AA4
:10341000AB428B42AB42CC4AAB428B42AC4ACC4A29
:10342000CC4ACC4AAC4AAC4AAC4AAB4A6B424A3A68
:103430006A3A6B426A426A3A6A3A4A3A6A428B424A
:103440006A424A3A6A3A6B426A428B428B428B42E8
:103450008B42CC42EC4A0C4B0D4BAB426A3A8B424E
:103460006E5B4E5BE8311595FFF73DDF5EE7BFEF22
:103470003DDF3DDF7EE73DDF5EE73DDF3DDF3DDFFA
:103480003DDF3DDF3DDF3DDF3DDF3DDF3DDF3DDF5C
:103490003DDF3DDF3DDF3DDF3DDF3DDF3DDF3DDF4C
:1034A0003DDF3DDF3DDF3DDF3DDF3DDF3DDF3DDF3C
:1034B0003DDF3DDF3DDF3DDF3DDF3DDF3DDF3DDF2C
:1034C0003DDF3DDF3DDF3DDF3DDF3DDF569D769D4E
:1034D0001595D48C9284527C727C527C1174D06B82
:1034E000AF636E636E5BAF63AF63D06B3174D48CCC
:1034F0007284F06BED522A3A8B428B42AB42EC5213
:103500002D532D536E5B0D536A426A3ACC4AAC4A36
:10351000AB4AAB428B428B42AB4AAB42CC4ACC4A21
:10352000AC4AAB42AB42CC4ACC4ACC4A8B426A3A18
:103530006A3A6A3A4A3A4A3A4A3A4A3A6B428B42B9
:103540006A424A3A6A426B426A426B42AB42AB42BF
:103550008B3AAB42EC4A0C4BEC4A6A3A4A32AB42E9
:10356000EC528B424E635EDF3DDF7FE71DDF5EE79F
:103570005DDF5EE75EE73DDF5DDF3DDF3DDF3DDFD9
:103580003DDF3DDF3DDF3DDF3DDF3DDF3DDF3DDF5B
:103590003DDF3DDF3DDF3DDF3DDF3DDF3DDF3DDF4B
:1035A0003DDF3DDF3DDF3DDF3DDF3DDF3DDF3DDF3B
:1035B0003DDF3DDF3DDF3DDF3DDF3DDF3DDF3DDF2B
:1035C0003DDF3DDF3DDF3DDF3DDF3DDF569D569D6D
:1035D0001595D48C9384727C727C527C1174D06B60
:1035E000AF636E638E63AF63AF63D06B1174D48CC3
:1035F000727C11742D5309326A3A6A3A8B42CC4A72
:103600000D530D536E5B6E5BCC4A4A3AAB428B4214
:103610008B42AB426A3A6A3AAB42CC4AEC4ACC4A59
:10362000AB428B428B42CC4ACC4ACC4AAB426A4238
:103630004A3A4A3A293A2A3A4A3A6A3A8B428B42F9
:103640006B426A3A6A426B426A428A42CB42AB425E
:103650008A3AAB42EC4A0C4BEC4A6A3ACC4A4E5B93
:10366000AB4AAB4AF8B59FEF3EDF5EE75EE71DDF92
:103670003DDF3DDF3DDF3DDF3DDF5EE73DDF3DDF41
:103680003DDF3DDF3DDF3DDF3DDF3DDF3DDF3DDF5A
:103690003DDF3DDF3DDF3DDF3DDF3DDF3DDF3DDF4A
:1036A0003DDF3DDF3DDF3DDF5DDF5DDF3DDF3DDFFA
:1036B0003DDF3DDF3DDF3DDF3DDF3DDF3DDF3DDF2A
:1036C0003DDF5DDF5DDF5DDF5DDF5DDF1595569D15
:1036D0003595F48CB384727C727C727C3174F07397
:1036E000AF636E638F638F63AF63D06B117493842A
:1036F0007384D06B2D538B424A3A8B428B42CC4A17
:10370000ED520D534E5B8F632D536B42AB4A2D53DD
:1037100009322A3A8B42CC4A8B428B42EC4AEC5219
:10372000AB4229328B42AB4ACC4AEC520C53AB42EF
:103730006A426A422A3A2A3A6B424A3A6B428B42BE
:103740006B3A8B426B426A3A8B428A42CC428B4242
:103750006A3AAB42CC4A0D53AB42AB424E5B8B4212
:10376000AB4AB06BDFF75EE73DDF7EE75DDF5DDF35
:103770003DDF3DDF3DDF3DDF3DDF3DDF5DDF3DDF49
:103780003DDF3DDF3DDF3DDF3DDF3DDF3DDF3DDF59
:103790003DDF3DDF3DDF3DDF3DDF3DDF3DDF3DDF49
:1037A0003DDF3DDF3DDF5DDF5DDF5DDF3DDF3DDFD9
:1037B0003DDF3DDF3DDF3DDF3DDF3DDF3DDF3DDF29
:1037C0003DDF3DDF3DDF3DDF3DDF3DDF1495559DB6
:1037D000559DF48CB3847284727C727C1174107465
:1037E000CF6B8F638F638F63AF63F06B11747384E0
:1037F000527CD06B4E5BAB4A4A3A6A428B42CC4A0F
:10380000EC4A0D534E5B6F632E5BCC4AAC4A0D53B2
:10381000AB426B426B42EC4A8B42AC4A6A428B42EF
:10382000AC4A8B42AB4A4A3A8B42EC522D5BEC4A93
:103830008B428B424A3A4A3A6B3A2A3A6B428B4263
:103840004A3A6B428B426A3A8B428A42AB428B3A8B
:103850004A3ACC42CC4A4A3A0D4BCC4A4A3A8B427D
:10386000AB4AB7ADDFF75EE75EE75EE75DDF5DDFE2
:103870003DDF3DDF3DDF3DDF3DDF3DDF5DDF3DDF48
:103880003DDF3DDF3DDF3DDF3DDF3DDF3DDF3DDF58
:103890003DDF3DDF3DDF3DDF3DDF3DDF3DDF3DDF48
:1038A0003DDF3DDF3DDF5DDF5DDF5DDF3DDF3DDFD8
:1038B0003DDF3DDF3DDF3DDF3DDF3DDF3DDF3DDF28
:1038C0003DDF3DDF3DDF3DDF3DDF3DDFF48C359506
:1038D000569D1595B3847284727C727C1174117438
:1038E000D06BAF638F636E63AF63F06B1174527C08
:1038F0003174AF6B6E5BEC4A6B426A3A6B42AB421F
:10390000CC4AED522D534E5B2D5B0D53AC4AEC4A25
:103910002D53AB4A4A3AAB4A09328B422D53AB4244
:103920004A3A6A3AAB4A8B428B42AB420D53EC4A5D
:10393000AB42AB426A3A4A3A6A3A4A3A8B428B42C3
:103940006A3A8B428B428B42AB428B42AC426B3A1F
:103950006A3A8B428B42EC4A6E5B29324A3A8B427E
:10396000D06BBFEF7FE75EE75EE75EE75DDF5DDFC1
:103970003DDF3DDF3DDF3DDF3DDF3DDF5DDF3DDF47
:103980003DDF3DDF3DDF3DDF3DDF3DDF3EDF3EDF55
:103990003EDF3DDF3DDF3DDF3DDF3DDF3DDF3DDF46
:1039A0003DDF3DDF3DDF5DDF5DDF5DDF3DDF3DDFD7
:1039B0003DDF3DDF3DDF3DDF3DDF3DDF3DDF3DDF27
:1039C0003DDF3DDF3DDF3DDF3DDF3DDFD48C159545
:1039D000569D1595B38C72847284527C1174117447
:1039E000D06BAF6B8F636E638F63F06B1174327C3F
:1039F0001174B06B6F630D538B426A426A428B4203
:103A0000CC4AED520D53ED52EC52ED52EC4AED52D0
:103A10006E630D536A3AAB4229328B420D53CC4A46
:103A20008B426A3A6A3A6A428B426B42AB42CC4A58
:103A3000CC4ACC4A6A422A324A3A4B3A8C428B42AE
:103A40006B3A6A426B428A428B428B428B428B4278
:103A50004A3A6A3A0D534E534A3A8B420D538B42BF
:103A600039BEDFEF5EE73DDF3DDF5EE73DDF3DDF97
:103A70003DDF3DDF3DDF3DDF3DDF3DDF5DDF3DDF46
:103A80003DDF3DDF3DDF3DDF3DDF3DDF3EDF3EDF54
:103A90003EDF3EDF3DDF3DDF3DDF3DDF3DDF3DDF44
:103AA0003DDF3DDF3DDF5DDF5DDF5DDF3DDF3DDFD6
:103AB0003DDF3DDF3DDF3DDF3DDF3DDF3DDF3DDF26
:103AC0003DDF3DDF3DDF3DDF3DDF3DDFD48C159544
:103AD000569D3595B38C72847284727C317C1174DE
:103AE000D06BAF6B8F636E638F63D06B1174317467
:103AF0001174D06B8F630D53AC4A8B426A428B4278
:103B0000CC4A0D530D53CC4ACC4ACC4ACC4AEC4A51
:103B10004E5B2D53AB4AAB4A6A426A426A3A6A42EA
:103B20008B42AB428B428B426A3A293A6A3AAB4AA1
:103B3000CC4AAC4A8B424A3A4A3A4A3A8B426B42A6
:103B40006B3A4A3A4A3A6A3A6A428A428B424A3A5B
:103B5000AC4ACC4A4A3A8B426B42ED52AB4A1174A2
:103B6000DFF71DD79FE71CD75EE75EE73DDF3DDF50
:103B70003DDF3DDF3DDF3DDF3DDF3DDF5DDF3DDF45
:103B80003DDF3DDF3DDF3DDF3DDF3DDF3EDF3EDF53
:103B90003EDF3EDF3EDF3DDF3DDF3DDF3DDF3DDF42
:103BA0003DDF3DDF3DDF5DDF5DDF5DDF3DDF3DDFD5
:103BB0003DDF3DDF3DDF3DDF3DDF3DDF3DDF3DDF25
:103BC0003DDF3DDF3DDF3DDF3DDF3DDFD48C159543
:103BD000569D359DB38C93849384727C317C117493
:103BE000D06BAF6BAF6B8F638F63D06B117411743D
:103BF000F173D06B6F632D53CC4AAB428B428B4237
:103C0000CC4A0D530D53EC4ACC4ACC4AAC4AEC4A50
:103C10000D530D53CC4AAB4A8B424A3AAB422A3A37
:103C2000E8296A3AEC4A0D53AB4A6A3A6A3AAB421F
:103C30008A428B42AC428B426B424A3A6B426B42A5
:103C40006B424A3A4A3A8B428A428A428B428B42C0
:103C50008B424A3A4A3A4A3AED52EC526B429BC680
:103C6000BFEF3EDF7EE75EE73DDF3DDF3DDF3DDF6F
:103C70003DDF3DDF3DDF3DDF3DDF3DDF5DDF3DDF44
:103C80003DDF3DDF3DDF3DDF3DDF3DDF3EDF3EDF52
:103C90003EDF3EDF3EDF3DDF3DDF3DDF3DDF3DDF41
:103CA0003DDF3DDF3DDF5DDF5DDF5DDF3DDF3DDFD4
:103CB0003DDF3DDF3DDF3DDF3DDF3DDF3DDF3DDF24
:103CC0003DDF3DDF3DDF3DDF3DDF3DDFD48CF49464
:103CD000359D359DB38C9384B384727C527C117472
:103CE000D06BD06BAF6B8F638F63D06B1174F1733C
:103CF000F06BB06B6E5B2D53EC4AAB4A8B428B4240
:103D0000AC4AED520D530D53EC4AEC4ACC4AED52FD
:103D10002D532D5B0D53EC4AAB4A8B42CC4AAB4240
:103D200029322A3A6B42CC4AAB42CC4AAB42AB4234
:103D30004A3A4A3A8B428B428B424B3A6B3A6B423D
:103D40008B424A3A6A42EC4ACB4A8A42ED520932E5
:103D50002A3A6B428B428B422E5BEC527284FFEF0D
:103D60005EDF9FE73DDF7EE73DDF3DDF3EDF3EDF9D
:103D70003DDF3DDF3DDF3EDF3EDF3EDF5EDF3EDF3E
:103D80003EDF3EDF3EDF3EDF3EDF3EDF3EDF3EDF4B
:103D90003EDF3EDF3EDF3EDF3DDF3DDF3DDF3DDF3F
:103DA0003DDF3DDF3DDF5DDF5DDF5DDF3DDF3DDFD3
:103DB0003DDF3DDF3DDF3DDF3DDF3DDF3DDF3DDF23
:103DC0003DDF3DDF3DDF3DDF3DDF3DDFB38CD48CAC
:103DD000359D359DD48CB38CB38C727C527C317400
:103DE000F073D06BAF6B8F638F63D06B1174F06B1C
:103DF000D06BAF636E5B2D53ED52AC4AAB428B423E
:103E0000AB42CC4A0D530D53ED52EC4AAB4ACC4A6F
:103E10000D530D530D53EC52AB4AAC4A8B420D532C
:103E20008B424A3A29326A3A2932293AEC4AEC5210
:103E30008A424A3A6B3A4A3A4A3A4A3A4B3A6B3AD7
:103E40008B424A3A8B422D53EC4A8A4209326B42EA
:103E5000AC4A6B426B422E5BCC4A4E5B1DD75EDF99
:103E60007EE7FDD65EE71DDF7EE73DDF3EDF3DDF1F
:103E70003DDF3DDF3DDF3EDF3EDF3EDF5EDF3EDF3D
:103E80003EDF3EDF3EDF3EDF3EDF3EDF3EDF3EDF4A
:103E90003EDF3EDF3EDF3EDF3DDF3DDF3DDF3DDF3E
:103EA0003DDF3DDF3DDF5DDF5DDF5DDF3DDF3DDFD2
:103EB0003DDF3DDF3DDF3DDF3DDF3DDF3DDF3DDF22
:103EC0003DDF3DDF3DDF3DDF3DDF3DDFB38CD48CAB
:103ED000159D359DD494B38CB38C7284727C317CE7
:103EE000F06BD06BAF6BAF63AF63CF6BF173F173FC
:103EF000AF636F636E632D53CC4AEC4AAB4A8B427F
:103F0000AB42CC4A0D532D5B0D53ED52CC4ACC4AFB
:103F1000CC4AED4AED52EC4ACC4AAB42AB4ACC4AD1
:103F2000AB4A6A3A4A3A8B428A42493A4A3AAC4ADE
:103F3000CC4A8C424B3A4B3A6B3A6B3A4A324A3A49
:103F40008A3A0C4BEC4AAC426A3A6B3A4A3AAC4A6F
:103F50004A3A6B420D532E5B6A3A97A59FEF5EE794
:103F60003DE73DE75EE73EE73EDF3EDF3DDF3DDF2D
:103F70003DDF3DDF3EDF3EDF3EDF3EDF3EDF3EDF5B
:103F80003EDF3EDF3EDF3EDF3EDF3EDF3EDF3EDF49
:103F90003EDF3EDF3EDF3EDF3DDF3DDF3DDF3DDF3D
:103FA0003DDF3DDF3DDF5DDF5DDF5DDF3DDF3DDFD1
:103FB0003DDF3DDF3DDF3DDF3DDF3DDF3DDF3DDF21
:103FC0003DDF3DDF3DDF3DDF3DDF3DDFB38CD48CAA
:103FD000159D359DF494B38C938C72847284317CDE
:103FE000F073D06BCF6BAF63AF63CF6BF073F073D5
:103FF0008F634E5B6E5B4E5B0D53EC52AB4AAB4234
:10400000AB42CC4A0D532D530D530D53CC4ACC4AE1
:10401000CC4ACC4ACC4ACC4AAB428B428B42CC4AAB
:10402000CC4A8B426A3A6A426A3A293A4A3A8B4205
:104030008B42CC4AAC42CD4A4B3AAC428B3AAC4272
:10404000CB42CC42AB42EC4AAB426B3A6B420932B8
:104050006B42CC4A4E5BCC4A9384DFF77EE73DE768
:104060003DE73DE73DE71DDF3EDF3EDF3DDF3DDF76
:104070003DDF3DDF3EDF3EDF3EDF3EDF3EDF3EDF5A
:104080003EDF3EDF3EDF3EDF3EDF3EDF3EDF3EDF48
:104090003EDF3EDF3EDF3EDF3DDF3DDF3DDF3DDF3C
:1040A0003DDF3DDF3DDF5DDF5DDF5DDF3DDF3DDFD0
:1040B0003DDF3DDF3DDF3DDF3DDF3DDF3DDF3DDF20
:1040C0003DDF3DDF3DDF3DDF3DDF3DDF938CD48CC9
:1040D000159D369DF594D48C938C72847284317CBA
:1040E0001074F06BD06BAF63AF63D06BF06BF06BA1
:1040F0008F632D5B4E5B6E5B2E5B0D53CC4AAB4AE0
:10410000AB42AC4AEC4A0D532D530D53ED52ED4AE0
:10411000CC4ACC4ACC4AAC4AAB428B428B42AB4AEB
:10412000AC4A8B428A426A3A6A3A4A3A6A426A42DC
:10413000293AAC4A8C42AD4A2A322E53AC42AB42A9
:104140008B42AB42AB42AB428B3A8B424A3ACC4AAF
:10415000EC4A2E53CC4AB06B3DDF5EDF5EE73DDFBD
:104160003DE73DE73DE71DDF3EDF3EDF3DDF3DDF75
:104170003DDF3DDF3EDF3EDF3EDF3EDF3EDF3EDF59
:104180003EDF3EDF3EDF3EDF3EDF3EDF3EDF3EDF47
:104190003EDF3EDF3EDF3EDF3DDF3DDF3DDF3DDF3B
:1041A0003DDF3DDF3DDF3DDF5DDF5DDF3DDF3DDFEF
:1041B0003DDF3DDF3DDF3DDF3DDF3DDF3DDF3DDF1F
:1041C0003DDF3DDF3DDF3DDF3DDF3DDF938CD48CC8
:1041D0001595359D1595D494B38472849384527C3F
:1041E0001174F06BD06BAF6BAF6BD06BD06BD06BCF
:1041F0008F634E5B2D5B4E5B4E5B4E5BEC52CC4A4D
:10420000AB42AB42CC4A0D532D530D530D53ED52DF
:10421000EC4ACC4ACC4ACC4AAC4AAB428B428B42A9
:104220008B428B426B426A3A6A3A6A3A6A426A4203
:104230002A3A8B428C422A3A2A3A2F5B8B426A3ABC
:104240006A3A8B428B426A3A4A3A6A3A6B3AAC42D1
:104250000E532E534E5BDCCE9FE71DD75EE75DE726
:104260003DE73DE73EDF1DDF3EDF3EDF3DDF3DDF7B
:104270003DDF3DDF3DDF3EDF3EDF3EDF3DDF3EDF5A
:104280003EDF3EDF3EDF3EDF3EDF3EDF3EDF3EDF46
:104290003EDF3EDF3EDF3EDF3EDF3DDF3DDF3DDF39
:1042A0003DDF3DDF3DDF3DDF3DDF3DDF3DDF3DDF2E
:1042B0003DDF3DDF3DDF3DDF3DDF3DDF3DDF3DDF1E
:1042C0003DDF3DDF3DDF3DDF3DDF3DDF938CD48CC7
:1042D000F49415951595D494B38C93849384527C5F
:1042E0001174F073F06BD06BAF6BCF6BAF6BAF63D0
:1042F000AF636F632D5B0D532D534E5B2D53ED520A
:10430000AB4A8B42CC4A0D532D530D53ED52ED4A1F
:10431000CC4ACC4ACC4ACC4AAB4AAB42AB428B42A9
:104320008B428B428B426A426A3A6A42493A8A42DB
:104330006A428B42ED4AC9298C42CD4A2A3A6B3AED
:104340008B424A3A493A6A3A8A3A6A3A8C42CC42B1
:10435000CD4AED4A9384FFF73DDF9EE77EE75EE7B7
:104360003DE73DDF3EDF3EDF3EDF3EDF3DDF3DDF61
:104370003DDF3DDF3DDF3DDF3DDF3DDF3DDF3DDF5D
:104380003EDF3EDF3EDF3EDF3EDF3EDF3EDF3EDF45
:104390003EDF3EDF3EDF3EDF3EDF3DDF3DDF3DDF38
:1043A0003DDF3DDF3DDF3DDF3DDF3DDF3DDF3DDF2D
:1043B0003DDF3DDF3DDF3DDF3DDF3DDF3DDF3DDF1D
:1043C0003DDF3DDF3DDF3DDF3DDF3DDF938CD48CC6
:1043D000D494F4941595F494B38C93849384727C60
:1043E00031741174F073D06BAF6BAF6B8F638F63ED
:1043F000AF63AF632D5BEC4A0D534E5B4E5B0D53C9
:10440000CC4AAB42CC4A0D530D530D53ED4AEC4A06
:10441000CC4ACC4ACC4ACC4AAC4AAB4AAB4AAB4277
:104420008B428B428B426A424A3A4A3A693A8A4202
:104430006A3A6B42CD4AC931EE526C424B3A6B42FA
:104440008B424A3A4A3A6A3AAB42AB42CC420E53AA
:104450006F5B4E5B77A55EDF7EE71CD77EE75EE78E
:104460003DDF3DDF3DDF3EDF3EDF3DDF3DDF3DDF6A
:104470003DDF3DDF3DDF3DDF3DDF3DDF3DDF3DDF5C
:104480003EDF3EDF3EDF3EDF3EDF3EDF3EDF3EDF44
:104490003EDF3EDF3EDF3EDF3EDF3DDF3DDF3DDF37
:1044A0003DDF3DDF3DDF3DDF3DDF3DDF3DDF3DDF2C
:1044B0003DDF3DDF3DDF3DDF3DDF3DDF3DDF3DDF1C
:1044C0003DDF3DDF3DDF3DDF3DDF3DDF9384D48CCD
:1044D000D48CF4941595F494B38C93849384727C67
:1044E000317411741074D06BAF6BAF638F636F63F3
:1044F000AF638F632D5B0D530D532D534E5B2D5BBF
:104500000D53CC4ACC4AED520D530D53ED52EC4AAB
:10451000CC4ACC4ACC4ACC4ACC4ACC4ACC4AAB4A0C
:10452000AB428B428B426A3A4A3A4A3A693A6A3A11
:10453000493AAB426B422A3A2E5B6B426B424A3A93
:104540006A426A3A8A426A3ACB4A2D534F53EE4A3C
:10455000948452745ABE5EDF5EE75DDF3DDF3DDF6F
:104560003EDF3DDF3DDF3EDF1DDF1DDF3DDF3DDFA9
:104570003DDF3DDF3DDF3DDF3DDF3DDF3DDF3DDF5B
:104580003EDF3EDF3EDF5EDF3EDF3EDF3EDF3EDF23
:104590003EDF3EDF3EDF3EDF3EDF3EDF3DDF3DDF35
:1045A0003DDF3DDF3DDF3DDF3DDF3DDF3DDF3DDF2B
:1045B0003DDF3DDF3DDF3DDF3DDF3DDF3DDF3DDF1B
:1045C0003DDF3DDF3DDF3DDF3DDF3DDF9384D48CCC
:1045D000D48CF4943595F494B38493849384727C4E
:1045E000317411741174D06BAF63AF638F636E63FA
:1045F0008F638F632D5B2D532D5BED522D534E5BDF
:104600002D53EC52CC4AEC520D530D53ED52EC4A63
:10461000CC4ACC4ACC4ACC4ACC4ACC4ACC4ACC4AEA
:10462000AB4A8B426A3A6A3A6A428B424932693AE9
:104630006A3A2D534A3A8C420E5B4B424B3A6B42DC
:104640008B424A3A8B42CB424D534D530E43336C0F
:10465000D584737CFDCEBFEF7EE75EE71DDF3DDFD7
:104660005EDF3EDF3EDF3EDF3DDF3DDF3DDF3DDF46
:104670003DDF3DDF3DDF3DDF3DDF3DDF3DDF3DDF5A
:104680003EDF3EDF3EDF5EDF5EDF3EDF3EDF3EDF02
:104690003EDF3EDF3EDF3EDF3EDF3EDF3DDF3DDF34
:1046A0003DDF3DDF3DDF3DDF3DDF3DDF3DDF3DDF2A
:1046B0003DDF3DDF3DDF3DDF3DDF3DDF3DDF3DDF1A
:1046C0003DDF3DDF3DDF3DDF3DDF3DDF9384B38CEC
:1046D000D48CF494F494F494D48C9384727C527CAF
:1046E000527C317CF06BD06BCF6BAF638F636F63A9
:1046F0006E5B6E5B4E5B2E5B2D530D532D532D5B0E
:104700002D5B0D53ED52EC4AEC520D53ED52EC4A39
:10471000CC4ACC4ACC4ACC4AEC4AEC4ACC4AEC4A89
:10472000AB428B42AC4AAB4A6A3A4A3A48326A3A9E
:10473000AB420D5309320E538C426B426B424A3AE4
:104740006B42AB42CC42CC426E5B2D53D15BD584E5
:10475000B05B3AB69FE75EE75EE71DDF3EDF3EDF18
:104760003EDF3EDF3EDF3EDF3DDF3DDF3DDF3DDF65
:104770003DDF3DDF3DDF3DDF3DDF3DDF3DDF3DDF59
:104780003DDF3DDF3DDF3DDF3EDF3EDF3EDF3EDF45
:104790003EDF3EDF3EDF3EDF3EDF3EDF3EDF3EDF31
:1047A0003DDF3DDF3DDF3DDF3DDF3DDF3DDF3DDF29
:1047B0003DDF3DDF3DDF3DDF3DDF3DDF3DDF3DDF19
:1047C0003DDF3DDF3DDF3DDF3DDF3DDF9384B38CEB
:1047D000D48CF48CF4941495D48CB384727C727C55
:1047E000727C517CF073D06BCF6BAF638F636F6360
:1047F0006E5B6E5B4E5B2E5B2D532D532D5B2E5BE4
:104800002E5B2D530D530D530D530D53EC52EC4AAB
:10481000CC4ACC4ACC4ACC4AEC4AEC4AEC4AED525F
:10482000EC4ACC4AEC4ACC4AAC4AAB42CB422932A5
:104830004E5B8B422A3A4F5B8C428C426B428B42DE
:10484000AB428B3A0D4B8F5BCC42B05BD67C336472
:10485000FAA5BFE75EDF5EE73DE77EE73EDF3EDFCE
:104860003EDF3EDF3EDF3EDF3DDF3DDF3DDF3DDF64
:104870003DDF3DDF3DDF3DDF3DDF3DDF3DDF3DDF58
:104880003DDF3DDF3DDF3DDF3EDF3EDF3EDF3EDF44
:104890003EDF3EDF3EDF3EDF3EDF3EDF3EDF3EDF30
:1048A0003EDF3EDF3EDF3DDF3DDF3DDF3DDF3DDF25
:1048B0003DDF3DDF3DDF3DDF3DDF3DDF3DDF3DDF18
:1048C0003DDF3DDF3DDF3DDF3DDF3DDF9384B384F2
:1048D000D48CF48CF494F494F48CB38C9384727C24
:1048E000727C527C1174D06BCF6BAF638F638F631C
:1048F0006E636E5B4E5B4E5B2D5B2D534E5B2E5B92
:104900002D5B2D532D532D530D530D53ED52EC5262
:10491000EC4AEC4AEC4AEC4AEC52EC52EC4AED52CE
:104920002D532D530D530D530D53ED522D53EC4A72
:10493000106C8B422E5B4E5BCD4AAC4A8C428B4254
:10494000ED4A4E53ED424E53D15B536C956CDA9D5C
:104950009FD75FDF5EDF7EE71DDF3DDF3EDF3EDFAF
:104960003EDF3EDF3EDF3EDF3DDF3DE73DDF3DDF5B
:104970003DDF3DDF3DDF3DDF3DDF3DDF3DDF3DDF57
:104980003DDF3DDF3DDF3DDF3EDF3EDF3EDF3EDF43
:104990003EDF3EDF3EDF3EDF3EDF3EDF3EDF3EDF2F
:1049A0003EDF3EDF3EDF3EDF3EDF3EDF3DDF3DDF21
:1049B0003DDF3DDF3DDF3DDF3DDF3DDF3DDF3DDF17
:1049C0003DDF3DDF3DDF3DDF3DDF3DDF9384B384F1
:1049D000D38CD48CF48CF494F48CD38CB384728404
:1049E000727C727C3174F06BD06BAF638F638F63BA
:1049F0006E636E5B4E5B4E5B2E5B2E5B2E5B2D5BA8
:104A00002D532D5B4E5B2E5B0D53EC4AED52EC5259
:104A1000EC4AEC4AEC4AEC52EC52EC4AEC4AEC4AD6
:104A20000D530D53ED52ED520D53ED4AEC42D06350
:104A30004E532E538F63AC4AAC42AB42AC42EC4A6D
:104A4000CC424E53B05B90539474D57C998DBEB6D6
:104A50009FD77FDF9FE73DDF5EE73DE73EDF3EDF3D
:104A60003EDF3EDF3EDF3EDF3DDF3DE73DDF3DDF5A
:104A70003DDF3DDF3DDF3DDF3DDF3DDF3DDF3DDF56
:104A80003DDF3DDF3DDF3DDF3EDF3EDF3EDF3EDF42
:104A90003EDF3EDF3EDF3EDF3EDF3EDF3EDF3EDF2E
:104AA0003EDF3EDF3EDF3EDF3EDF3EDF3DDF3DDF20
:104AB0003DDF3DDF3DDF3DDF3DDF3DDF3DDF3DDF16
:104AC0003DDF3DDF3DDF3DDF3DDF3DDF9384B384F0
:104AD000B384D48CF48CF494F48CD48CB38492840A
:104AE000727C727C3174F06BD06BAF638F638F63B9
:104AF0006E636E5B6E5B4E5B4E5B4E5B2E5B2D5B47
:104B00002D5B4E5B4E5B4E5B0D53EC4AEC52EC4A18
:104B1000EC4AEC4AEC4AEC4AEC4AEC4AEC52CC4AFD
:104B2000CC4AEC4ACC4ACC4AEC4AAC4A0D4BF06336
:104B3000AB42B063ED4A8C424A3AAC42CC42CC42E2
:104B40002E536F53B05BD15BB674588D7DA63BA6D8
:104B50005FCFBFDF5EDF5EE75EE73EE73EDF3EDF63
:104B60003EDF3EDF3EDF3EDF3DDF3DE73DDF3DDF59
:104B70003DDF3DDF3DDF3DDF3DDF3DDF3DDF3DDF55
:104B80003DDF3DDF3DDF3DDF3EDF3EDF3EDF3EDF41
:104B90003EDF3EDF3EDF3EDF3EDF3EDF3EDF3EDF2D
:104BA0003EDF3EDF3EDF3EDF3EDF3EDF3DDF3DDF1F
:104BB0003DDF3DDF3DDF3DDF3DDF3DDF3DDF3DDF15
:104BC0003DDF3DDF3DDF3DDF3DDF3DDFB384B384CF
:104BD000B384B38CF48C1595F494D48CD38C9284D8
:104BE000727C527C3174F06BCF6BAF638F636F63F9
:104BF0006E5B6E5B4E5B4E5B4E5B4E5B4E5B2E5B4D
:104C00004E5B4E5B4E5B4E5B2D530D530D530D5360
:104C10000C530C53ED52EC52EC52EC4AEC52CC4A91
:104C2000AC4AAC4AAC42AC4ACC4AAC4AF1630D4BFC
:104C30006F536F5BCC4AAC428B428B42CC4A8F5B4A
:104C40004E5390539053F25BF77C3DA61C9EFB9D08
:104C50003FCF7FD71DD77EE73DE71DDF3EDF3EDF3D
:104C60003EDF5EDF3EDF3EDF3DDF3DE73DDF3DDF38
:104C70003DDF3DDF3DDF3DDF3DDF3DDF3DDF3DDF54
:104C80003DDF3DDF3DDF3DDF3EDF3EDF3EDF3EDF40
:104C90003EDF3EDF3EDF3EDF3EDF3EDF3EDF3EDF2C
:104CA0003EDF3EDF3EDF3EDF3EDF3EDF3DDF3DDF1E
:104CB0003DDF3DDF3DDF3DDF3DDF3DDF3DDF3DDF14
:104CC0003DDF3DDF3DDF3DDF3DDF3DDFD48CB38C9D
:104CD000B384D38CF48C1595F494D48CF48C938495
:104CE000727C527C3174F06BAF6B8F638F636F6338
:104CF0006E5B6E5B4E5B4E5B4E5B4E5B4E5B4E5B2C
:104D00004E5B4E5B4E5B2E5B2D532D532D532D531F
:104D10000D530D530D53ED52ED52EC52EC4ACC4A6B
:104D2000AC4A8B42AB42AC42CC4A0D538F5BAC3A9F
:104D3000B05BCC42CC426B3A0D53EC4A8F5B4E5386
:104D40002E4B12641364F77C3C9E3D9E5C9EB98D95
:104D5000FEC6DFE75EDF3DDF7EEF3DE73EDF3EDFA5
:104D60003EDF3EDF3EDF3EDF3DDF3DE73DDF3DDF57
:104D70003DDF3DDF3DDF3DDF3DDF3DDF3DDF3DDF53
:104D80003DDF3DDF3DDF3DDF3EDF3EDF3EDF3EDF3F
:104D90003EDF3EDF3EDF3EDF3EDF3EDF3EDF3EDF2B
:104DA0003EDF3EDF3EDF3EDF3EDF3EDF3DDF3DDF1D
:104DB0003DDF3DDF3DDF3DDF3DDF3DDF3DDF3DDF13
:104DC0003DDF3DDF3DDF3DDF3DDF3DDFF48CD48C5B
:104DD000B38CD48CF4941595F48CB3841495B3846B
:104DE0007284727C3174F06BCF6B8F638F636F63EF
:104DF0006E5B6E5B4E5B4E5B4E5B4E5B4E5B4E5B2B
:104E00004E5B2E5B2D532D532D532D5B2D530D5388
:104E10000C53EC52EC4AEC4AEC4AEC4ACC4AEC4AD1
:104E2000CC4A8B42AB42AC42EC4A4E5BAC3A6F533D
:104E3000CD428C3A4A3A8B3ACF63F06B2D530C43F8
:104E4000D05BF25B58855DA61C9E9EA65D9E998DEB
:104E5000FEBE7FD77EE75EE71DDF5EE73EDF3EDF1B
:104E60003EDF3EDF3EDF3EDF3DDF3DE73DDF3DDF56
:104E70003DDF3DDF3DDF3DDF3DDF3DDF3DDF3DDF52
:104E80003DDF3DDF3DDF3DDF3EDF3EDF3EDF3EDF3E
:104E90003EDF3EDF3EDF3EDF3EDF3EDF3EDF3EDF2A
:104EA0003EDF3EDF3EDF3EDF3EDF3EDF3DDF3DDF1C
:104EB0003DDF3DDF3DDF3DDF3DDF3DDF3DDF3DDF12
:104EC0003DDF3DDF3DDF3DDF3DDF3DDFB7A59384C7
:104ED000B384D48CD48CF48C35959284F48CF48C7B
:104EE0009384727C317CF06BF06B8F638F638F6384
:104EF0006E634E5B4E5B4E5B4E5B4E5B4E5B4E5B42
:104F00004E5B2E5B2E532D532E532E5B0C53EC52C7
:104F1000EC52EC52CC52CC4ACC4AAC4ACC4AAB42D2
:104F20008B3ACC4ACC4AAB422D534E5BCC3A6E4BBB
:104F30006A328B42CD52706B6F63AD4ACE42704B7A
:104F4000F253BA8D1B96FB8D9EA67DA65C9EFA95AC
:104F50003BA65FCF9FE73EDF5EE71DDF3EE73EDF1C
:104F60003EDF3EDF3EDF3EDF3DDF3DDF3DDF3DDF5D
:104F70003DDF3DDF3DDF3DDF3DDF3DDF3DDF3DDF51
:104F80003DDF3DDF3EDF3EDF3EDF3EDF3EDF3EDF3B
:104F90003EDF3EDF3EDF3EDF3EDF3EDF3EDF3EDF29
:104FA0003EDF3EDF3EDF3EDF3EDF3EDF3DDF3DDF1B
:104FB0003DDF3DDF3DDF3DDF3DDF3DDF3DDF3DDF11
:104FC0003DDF3DDF3DDF3DDF3DDF3DDFFCCEF494E7
:104FD0009384F48C93841595F48CB384F48C159598
:104FE000B384527C517C1174F073AF638F638F6311
:104FF0006F636E5B4E5B4E5B4E5B4E5B4E5B4E5B20
:105000004E5B2E5B2E5B2E5B2D530D530D5B0C53B5
:10501000EC52EC52EC52CC4ACC4AAC4AAC426B3A21
:10502000CC4ACC4AAB424A328F5B4A3A6F4BCC3ABD
:10503000AC3ACC4A2E5B0E5BAD4ACD4A915BD25B5B
:1050400078853C961B967D9EFB953C96DDA61A9630
:10505000D995FDC67FDF3EDF5EE77FEF3EE73EDFAF
:105060003EDF3EDF3EDF3EDF3DDF3DDF3DDF3DDF5C
:105070003DDF3DDF3DDF3DDF3DDF3DDF3DDF3DDF50
:105080003DDF3DDF3EDF3EDF3EDF3EDF3EDF3EDF3A
:105090003EDF3EDF3EDF3EDF3EDF3EDF3EDF3EDF28
:1050A0003EDF3EDF3EDF3EDF3EDF3EDF3DDF3DDF1A
:1050B0003DDF3DDF3DDF3DDF3DDF3DDF3DDF3DDF10
:1050C0003DDF3DDF3DDF3DDF3DDF3DDFBFE77ABE5A
:1050D000D38CB38CB38414953595B384D48C359527
:1050E000D38C527C31741174F06BAF638F638F6318
:1050F0008F638F634E5B2D5B2E5B4E5B4E5B4E5B17
:105100002E5B4E5B4E5B2E5B0D53ED52EC52EC5220
:10511000EC52CC4ACC4ACC4ACC4ACC4A8C42CC4AFF
:105120006B3A2A320932CC4A6A3AAB426E4BEC42B5
:105130000D4BAC424F5BED52CD4A705BF263F67C97
:10514000BA8DFB8D5D965C96BA855D96FEAE5C9ED3
:10515000F9959CB67FDF5EDF3DDF5EE73EE73EE729
:105160003EDF5EDF3EDF3EDF3DDF3DDF3DDF3DDF3B
:105170003DDF3DDF3DDF3DDF3DDF3DDF3DDF3DDF4F
:105180003DDF3DDF3EDF3EDF3EDF3EDF3EDF3EDF39
:105190003EDF3EDF3EDF3EDF3EDF3EDF3EDF3EDF27
:1051A0003EDF3EDF3EDF3EDF3EDF3EDF3DDF3DDF19
:1051B0003DDF3DDF3DDF3DDF3DDF3DDF3DDF3DDF0F
:1051C0003DDF3DDF3DDF3DDF3DDF3DDF9FE71DD7BD
:1051D000569D9384D48C727CD48CD48C93841595F6
:1051E000F48C527C31741174D06B8F638E636E5B60
:1051F0006F638F634E5B2D532D534E5B4E5B4E5B47
:105200002E5B4E534E532D530D53ED4ACC4AED4A6F
:10521000ED4ACC4AAC42AC42AC42CD4AAC420A3236
:105220008B3A6A3A6B3A4E53AB424E53AF5BED4208
:105230000D4B4E5B4E5B8C420E4BD163B253788567
:1052400099855D96BEA6DB859A7D1C8EDEA6FEAE98
:105250009CA67BAE3ECF9FDF3DDF1DDF5EE75EE7B6
:105260005EE75EDF5EDF5DDF3DDF3DDF3DDF3DDFD3
:105270003DDF3DDF3DDF3DDF3DDF3DDF3DDF3DDF4E
:105280003DDF3DDF3DDF3EDF3EDF3EDF3EDF3EDF39
:105290003EDF3EDF3EDF3EDF3EDF3EDF3EDF3EDF26
:1052A0003EDF3EDF3EDF3EDF3EDF3EDF3DDF3DDF18
:1052B0003DDF3DDF3DDF3DDF3DDF3DDF3DDF3DDF0E
:1052C0003DDF3DDF3DDF3DDF3DDF3DDF5EDF7EDF9C
:1052D0001DD7F494727CB3849384F48C727CF49420
:1052E00015959384317C3174D06B8F636E636E5BE4
:1052F0006E636F634E5B2D532D534E5B4E5B4E5B67
:105300004E5B2E532D530D530D530D4BED4A0D5344
:105310000E53ED4ACC42AC42CC42ED4AAC42AC42D8
:105320000D4B4F5BB0634E53CC42CC420C432D53DC
:105330006E5B2E532A320E53126C336454643875EC
:105340003C96BE9E1C8EDB85BA7DFC8D9D9E5FB714
:10535000FEB67BAEFDC67FDF5DDF3DDF5DE75DE76F
:105360005DE75EE75DDF3DDF3DDF3DDF3DDF3DDFEC
:105370003DDF3DDF3DDF3DDF3DDF3DDF3DDF3DDF4D
:105380003DDF3DDF3DDF3DDF3DDF3DDF3EDF3EDF3B
:105390003EDF3EDF3EDF3EDF3EDF3EDF3EDF3EDF25
:1053A0003EDF3EDF3EDF3EDF3EDF3EDF3EDF3DDF16
:1053B0003DDF3DDF3DDF3DDF3DDF3DDF3DDF3DDF0D
:1053C0003DDF3DDF3DDF3DDF3DDF3DDF7EDF9FE752
:1053D000BFEF7ABEB38CD48CB38CD48C727CB38C7C
:1053E0001595D48C727C527CF073CF6B6E636E63B8
:1053F0006E5B6E636E5B4E5B2D5B2E5B2E5B4E5366
:105400004E532E530D530D530D530D530D4B2E5321
:105410004E532E530E4BED4AED4A0E532E532E5340
:10542000D163B063D0632E4BAC426B320D4B0D4B4E
:10543000CC42CC428C424F53CD3A5043B66CBA85E5
:105440007D961C867A75BB7DBB7D1C8E3C8EBEA670
:10545000FEAEBDB61DC77ED75EDF7EDF5DDF5DE7DA
:105460005DE75DDF5DDF3DDF3DDF3DDF3DDF3DDFF4
:105470003DDF3DDF3DDF3DDF3DDF3DDF3DDF3DDF4C
:105480003DDF3DDF3DDF3DDF3DDF3DDF3DDF3DDF3C
:105490003DDF3EDF3EDF3EDF3EDF3EDF3EDF3EDF25
:1054A0003EDF3EDF3EDF3EDF3EDF3EDF3EDF3EDF14
:1054B0003EDF3DDF3DDF3DDF3DDF3DDF3DDF3DDF0B
:1054C0003DDF3DDF3DDF3DDF3DDF3DDF7EE75EDF92
:1054D0001DD79FE75ABEB38C7284D48C9384938477
:1054E000F494F48C7284727C3174F06B8F636E630D
:1054F0004E5B4E5B4E5B4E5B4E5B2D5B2D532D53D7
:105500002D532D532D530D530D530D4BED4A0E536B
:105510002E534E532E530E53ED4AED4AAC422E53AA
:10552000B0636B3AD063AC42AC3A4E532D532E531A
:105530006B3A6B3A8F5B6F530A1AEA11D66C7D9601
:10554000DB7DBB7DDB7D9A75DB7DBB7DDB851C8ECA
:105550009DA6DEB63EC77FD75ED77EDF5DDF5DDF0F
:105560005DDF5DE73DE73DDF3DDF3DDF3DDF3DDF0B
:105570003DDF3DDF3DDF3DDF3DDF3DDF3DDF3DDF4B
:105580003DDF3DDF3DDF3DDF3DDF3DDF3DDF3DDF3B
:105590003DDF3EDF3EDF3EDF3EDF3EDF3EDF3EDF24
:1055A0003EDF3EDF3EDF3EDF3EDF3EDF3EDF3EDF13
:1055B0003EDF3EDF3DDF3DDF3DDF3DDF3DDF3DDF09
:1055C0003DDF3DDF3DDF3DDF3DDF3DDF1DD77EE7DA
:1055D0007FE75EE77EE7D8ADB38CD48CB38C527C8A
:1055E000D48CD48C7284527C1174D06B8F636E5BBC
:1055F0002E5B2D5B4E5B6E5B4E5B0D532D532D531F
:105600000D532D532D532D530D530D4BED4AED4A94
:105610000E532E532E53ED4AAC426B3A2A320E53A0
:10562000CC422E53ED4A4A320D4B2E53CC4A6A3AA5
:105630006B3A2E4B9053CD3A74643775FB857E964A
:105640007A6D7A6D9A75BB75FC85BB7DDC85BB85F3
:105650005D9E9DA6DEB67FD79FDF7EDF5DDF5DDFCF
:105660005DDF3DE73DDF3DDF3EDF3EDF3DDF3DDF30
:105670003DDF3DDF3DDF3DDF3DDF3DDF3DDF3DDF4A
:105680003DDF3DDF3DDF3DDF3DDF3DDF3DDF3DDF3A
:105690003DDF3DDF3EDF3EDF3EDF3EDF3EDF3EDF24
:1056A0003EDF3EDF3EDF3EDF3EDF3EDF3EDF3EDF12
:1056B0003EDF3EDF3EDF3EDF3DDF3DDF3DDF3DDF06
:1056C0003DDF3DDF3DDF3DDF3DDF3DDF5EDF5EDFB8
:1056D0005EE75EDF7EE79FE75AC67284D48C727CF9
:1056E000B38415959384B38C3174F0738F636E5BC0
:1056F0004E5B4E5B4E5B6E5B6E5B2D532D532D539D
:105700002D532D530D53ED4A0D4B0D53ED4AED52D4
:105710000D532E53CD4A4E5BAC428B426B3ACD4A71
:105720002A322E53CC424E53CC42ED422A328C3A8E
:105730006F53CD3AC911CD32D98DDA855C8EBA75E9
:10574000796D7A6D9A75DB7DDB85DB7DDC85FC8D83
:105750001C963C967CAE1EC77FD7BFE73DD73DDF8A
:105760005DDF5DE75EE75EE73EDF3EDF3DDF3DDFBD
:105770003DDF3DDF3EDF3DDF3DDF3EDF3DDF3DDF47
:105780003DDF3DDF3DDF3DDF3DDF3DDF3DDF3DDF39
:105790003DDF3EDF3EDF3EDF3EDF3EDF3EDF3EDF22
:1057A0003EDF3EDF3EDF3EDF3EDF3EDF3EDF3EDF11
:1057B0003EDF3EDF3EDF3EDF3EDF3DDF3DDF3DDF04
:1057C0003DDF3DDF3DDF3DDF3DDF3DDF5EE75EDFAF
:1057D0005EE75EDF5EE79FE7FDD6F8B5938CB38C9E
:1057E000527C1595D48C317C1174F073AF634D5B92
:1057F0002D534E5B2D5B0D532D534E5B2D5B2D5367
:105800002D532D530D530D530D530D53ED520D5379
:10581000CC4A8B42ED52AC4AED52AC426B428C42C8
:105820006B3A90632E53ED4A8C3A2A2A6B32ED4242
:105830004F4BD15B6C22745CDA85DA7DDB7D396598
:10584000185D7A6DDB7DDB7DDB7DFB85FC8D1D8E40
:105850001C96DB8DDB957CAE3ECFBFE75EDF3DDF88
:105860003DDF3DDF3DDF1DDF3EDF3EE73EDF3DDF6D
:105870003EDF3EDF3EDF3DDF3DDF3DDF3DDF3DDF45
:105880003DDF3DDF3DDF3DDF3DDF3DDF3DDF3DDF38
:105890003DDF3EDF3EDF3EDF3EDF3EDF3EDF3EDF21
:1058A0003EDF3EDF3EDF3EDF3EDF3EDF3EDF3EDF10
:1058B0003EDF3EDF3EDF3EDF3EDF3EDF3DDF3DDF02
:1058C0003DDF3DDF3DDF3DDF3DDF3DDF7EE73EDFAE
:1058D0005EE75EE73DDF5EE77EE75EDFD8B57284B8
:1058E0001174D48CF48C9384F073AF6B8F636E5B04
:1058F0006F636E634E5B2D530D53EC4A2D530D5366
:105900000D530D530D53ED52CC4AAC4AAC42AC4250
:10591000EC4AAC4ACC4AAC4A2A3A6A3A0E534B3A61
:105920004E536F5BAC42AC422A2AAC3A0E438C32E7
:1059300077857885545CF76C99753C861865F85CBA
:105940001965BB751C86FB85FB851B8E9B85DB85DE
:10595000FC8DFB8DDB951BA6BDBE3ECF7FDF5EDFE2
:105960005DDF5EE75EE73EDF5EDF7FE73EDF3EDF77
:105970003EDF3EDF3EDF3EDF3DDF3DDF3DDF3DDF43
:105980003DDF3DDF3DDF3DDF3DDF3DDF3DDF3DDF37
:105990003DDF3EDF3EDF3EDF3EDF3EDF3EDF3EDF20
:1059A0003EDF3EDF3EDF3EDF3EDF3EDF3EDF3EDF0F
:1059B0003EDF3EDF3EDF3EDF3EDF3EDF3EDF3DDF00
:1059C0003DDF3DDF3DDF3DDF3DDF3DDF5EE73EDFCD
:1059D0005EE75EE73DDF3DDF7EE79FE75EE797A599
:1059E000F494D48CD48CB38C11741174D06BAF63D9
:1059F0008F634E5B2D532D532D5B0D53EC4AEC4AB8
:105A0000EC520D530D530D53EC4ACC4AAC4A8B4229
:105A1000CC4AED4ACC4AED4AED528F632E53ED4A03
:105A20006F5BAC428C32A8198C324F4BCD32B56CC7
:105A3000FEB6545C955CDA85FB7D3965764C19655C
:105A40009B75BB7DFB85FB85FB85FA85DB8DDB8D3F
:105A5000FB8DFB95FB951B9E7CAEBCBE3ED73EDF0F
:105A60005DDF5EE75EE73EDF5EDF5EDF3EDF5EDF7F
:105A70005EDF3EDF3DDF3EDF3DDF3DDF3DDF3DDF23
:105A80003EDF3EDF3DDF3DDF3DDF3DDF3DDF3DDF34
:105A90003DDF3EDF3EDF3EDF3EDF3EDF3EDF3EDF1F
:105AA0003EDF3EDF3EDF3EDF3EDF3EDF3EDF3EDF0E
:105AB0003EDF3EDF3EDF3EDF3EDF3EDF3EDF3DDFFF
:105AC0003DDF3DDF3DDF3DDF3DDF3DDF3EE73EDFEC
:105AD0005EE75EE73EDF3DDF5EDF5EDF7FE73EDF06
